:020000040000FA
:040000003CEF00F0E1
:06000800738227ED1FF0DA
:100018007380D8CF07F0E8CF08F0E0CF09F0D9CF48
:100028000AF0DACF0BF09EAA1CEF00F01EEF00F0EA
:1000380030EF00F0ABA223EF00F025EF00F02AEF3D
:1000480000F0AB9800F0AB882AEF00F056EC1EF0F9
:1000580030EF00F030EF00F00BC0DAFF0AC0D9FF34
:1000680009C0E0FF08C0E8FF07C0D8FF7390100080
:04007800F9EF1EF08E
:100600000048656C6C6F20576F726C6400252E3249
:100610006600494E46004E414E00696E66006E61AE
:100620006E006C660000000E00019B6F000E9A6F5A
:100630003BC0ACF03CC0ADF03DC0AEF03EC0AFF052
:10064000AFBF27EF03F025EF03F03FEF03F0000EFD
:100650009B6F010E9A6FACC00CF0ADC00DF0AEC038
:100660000EF0AFC00FF09DEC1EF00CC0ACF00DC052
:10067000ADF00EC0AEF00FC0AFF03FEF03F0000ED4
:100680000001B36F000EB26F6BC09FF06CC0A0F0A2
:100690009A519B11D8A44FEF03F051EF03F05AEF9A
:1006A00003F06FA456EF03F058EF03F07EEF03F072
:1006B0005AEF03F09A519B11D8A461EF03F063EF56
:1006C00003F069EF03F0000E856F2B0E846F6FEF60
:1006D00003F0000E856F2D0E846F6FEF03F0000E98
:1006E000B225D96E010EB321DA6E84C0DFFFB24BA2
:1006F000B32B9F07D8A0A0077EEF03F0ACC00CF08F
:10070000ADC00DF0AEC00EF0AFC00FF095EC18F01C
:100710000C040D10D8A48FEF03F091EF03F0FBEF62
:1007200003F0BF0E406EFF0E416E3F50426E436AB3
:10073000405042264150432243500AE11A0E425C87
:10074000D8A0A5EF03F0A8EF03F0010EA9EF03F086
:10075000000E0001866F876BB9EF03F03FC00CF00D
:100760000D6ABDEC1EF00CC086F00DC087F0B9EF2D
:1007700003F0000186518711D8B4C1EF03F0C3EF35
:1007800003F0D1EF03F0000EB2250C6E010EB32181
:100790000D6E120E0E6E060E0F6E21EC1DF0E0EFC8
:1007A00003F0000E0001B2250C6E010EB3210D6E98
:1007B0001A0E0E6E060E0F6E21EC1DF0E0EF03F028
:1007C0000001FD0E9F27FF0EA02339C01CF03AC088
:1007D0001DF0000E1E6E010E1F6E9FC020F0A0C007
:1007E00021F057EC1BF01CC039F01DC03AF0A4EF0B
:1007F00009F0A4EF09F0ACC00CF0ADC00DF0AEC034
:100800000EF0AFC00FF095EC18F00C500D10D8A4FE
:100810000CEF04F00EEF04F078EF04F0BF0E406E22
:10082000FF0E416E3F50426E436A40504226415097
:10083000432243500AE11A0E425CD8A022EF04F092
:1008400025EF04F0010E26EF04F0000E0001886F82
:10085000896B36EF04F03FC00CF00D6ABDEC1EF062
:100860000CC088F00DC089F036EF04F0000188510B
:100870008911D8B43EEF04F040EF04F04EEF04F0DD
:10088000000EB2250C6E010EB3210D6E160E0E6E0B
:10089000060E0F6E21EC1DF05DEF04F0000E00015E
:1008A000B2250C6E010EB3210D6E1E0E0E6E060EDD
:1008B0000F6E21EC1DF05DEF04F00001FD0E9F278F
:1008C000FF0EA02339C01CF03AC01DF0000E1E6EB2
:1008D000010E1F6E9FC020F0A0C021F057EC1BF04E
:1008E0001CC039F01DC03AF0A4EF09F0A4EF09F0E4
:1008F000000E0001B46F000EB56F800EB66F3F0E94
:10090000B76F000EB16F000EB06FACC00CF0ADC091
:100910000DF0AEC00EF0AFC00FF0000E106E000E66
:10092000116E000E126E000E136EC0EC1BF0D8B0EC
:100930009CEF04F09EEF04F02DEF05F0C1EF04F002
:10094000C1EF04F0B4C00CF0B5C00DF0B6C00EF0AD
:10095000B7C00FF0000E106E000E116E200E126E5A
:10096000410E136EEEEC0EF00CC0B4F00DC0B5F0FD
:100970000EC0B6F00FC0B7F00001B04BB12BC1EF05
:1009800004F0ACC025F0ADC026F0AEC027F0AFC07B
:1009900028F0000E106E000E116E200E126E410E29
:1009A000136EB4C00CF0B5C00DF0B6C00EF0B7C0F9
:1009B0000FF0EEEC0EF00CC029F00DC02AF00EC0C6
:1009C0002BF00FC02CF038EC17F0D8B0EAEF04F0A1
:1009D000ECEF04F0A2EF04F010EF05F010EF05F0DB
:1009E000B4C00CF0B5C00DF0B6C00EF0B7C00FF03B
:1009F000000E106E000E116E200E126E410E136E60
:100A000025EC11F00CC0B4F00DC0B5F00EC0B6F07E
:100A10000FC0B7F00001B007D8A0B10710EF05F084
:100A2000ACC025F0ADC026F0AEC027F0AFC028F0B6
:100A3000B4C029F0B5C02AF0B6C02BF0B7C02CF076
:100A400038EC17F0D8A027EF05F029EF05F0F0EF0C
:100A500004F02DEF05F02DEF05F03FC012F0136A02
:100A6000ACEC1CF012500001A16FA1C09EF0670E0B
:100A7000A119D8A43EEF05F040EF05F06AEF05F0AC
:100A80006D506E10D8A447EF05F049EF05F04FEF19
:100A900005F0000E6E6E010E6D6E4FEF05F06EBE2E
:100AA0005CEF05F06E5006E16D04D8B05AEF05F02A
:100AB0005CEF05F062EF05F0000E9D6F060E9C6F77
:100AC0007FEF05F06DC09CF06EC09DF07FEF05F0EC
:100AD0007FEF05F06EBE6FEF05F071EF05F077EF79
:100AE00005F06DC09CF06EC09DF07FEF05F0000E2C
:100AF0009D6F060E9C6F7FEF05F07FEF05F0670E90
:100B0000A119D8A486EF05F088EF05F0BBEF05F03A
:100B1000B1AF96EF05F0FC0EB05DFF0EB159D8A055
:100B200094EF05F096EF05F0B5EF05F0FF0E406E7F
:100B3000FF0E416E9CC042F09DC043F040504226E3
:100B400041504322B051425C4350800A446EB1513F
:100B5000800A4458D8A0AFEF05F0B1EF05F0B5EF2B
:100B600005F0660E9E6FBBEF05F0650E9E6FBBEF46
:100B700005F0BBEF05F09CC094F09DC095F0670EAA
:100B8000A119D8A4C6EF05F0C8EF05F0DAEF05F01B
:100B9000660E9E19D8A4CFEF05F0D1EF05F0DEEF79
:100BA00005F0B1BFD8EF05F0D6EF05F0DEEF05F0A8
:100BB000DAEF05F0944B952BDEEF05F0660E9E19EB
:100BC000D8A4E5EF05F0E7EF05F00DEF06F0B1BFB3
:100BD000EEEF05F0ECEF05F0FCEF05F0000EB46F62
:100BE000000EB56F800EB66F3F0EB76F000EB16F7F
:100BF000000EB06FFCEF05F0670EA119D8B403EF3B
:100C000006F005EF06F00DEF06F0B0519427B15154
:100C100095230DEF06F00DEF06F0000EAB6F000E02
:100C2000AA6FACC0A2F0ADC0A3F0AEC0A4F0AFC03C
:100C3000A5F0B4C080F0B5C081F0B6C082F0B7C0F6
:100C400083F0A0EF06F0A2C00CF0A3C00DF0A4C08A
:100C50000EF0A5C00FF0B4C010F0B5C011F0B6C0D2
:100C600012F0B7C013F025EC11F00CC025F00DC048
:100C700026F00EC027F00FC028F035EC13F025C089
:100C8000A6F026C0A7F027C0A8F028C0A9F0A6C0EB
:100C90000CF0A7C00DF0A8C00EF0A9C00FF0ECEC4E
:100CA00017F00CC098F00DC099F0A2C025F0A3C0B9
:100CB00026F0A4C027F0A5C028F0B4C010F0B5C03D
:100CC00011F0B6C012F0B7C013F0A6C00CF0A7C068
:100CD0000DF0A8C00EF0A9C00FF0EEEC0EF00CC0A5
:100CE00029F00DC02AF00EC02BF00FC02CF031EC13
:100CF0001EF025C0A2F026C0A3F027C0A4F028C093
:100D0000A5F0B4C00CF0B5C00DF0B6C00EF0B7C081
:100D10000FF0000E106E000E116E200E126E410EBE
:100D2000136E25EC11F00CC0B4F00DC0B5F00EC080
:100D3000B6F00FC0B7F00001AA4BAB2BA0EF06F046
:100D40009451AA5DAB51800A406E9551800A40587B
:100D5000D8A0ADEF06F0AFEF06F023EF06F0B1EF4D
:100D600006F0B4C00CF0B5C00DF0B6C00EF0B7C0C0
:100D70000FF0000E106E000E116EA00E126E400EDF
:100D8000136EEEEC0EF00CC0A6F00DC0A7F00EC076
:100D9000A8F00FC0A9F0A2C025F0A3C026F0A4C0FF
:100DA00027F0A5C028F0A6C029F0A7C02AF0A8C047
:100DB0002BF0A9C02CF038EC17F0D8B0E2EF06F019
:100DC000E4EF06F0EFEF06F0000E0001A66F000E54
:100DD000A76F000EA86F000EA96F1CEF07F0A2C04E
:100DE0000CF0A3C00DF0A4C00EF0A5C00FF0A6C07B
:100DF00010F0A7C011F0A8C012F0A9C013F0C0EC09
:100E00001BF0D8A006EF07F008EF07F01CEF07F083
:100E1000000198B10EEF07F010EF07F01CEF07F09C
:100E2000000EA66F000EA76F000EA86F000EA96F30
:100E30001CEF07F01CEF07F0ACC00CF0ADC00DF0DC
:100E4000AEC00EF0AFC00FF0A6C010F0A7C011F0FA
:100E5000A8C012F0A9C013F0A5EC09F00CC0A2F0D4
:100E60000DC0A3F00EC0A4F00FC0A5F080C0B4F078
:100E700081C0B5F082C0B6F083C0B7F0650E000146
:100E80009E19D8B446EF07F048EF07F04EEF07F091
:100E9000B0C096F0B1C097F052EF07F0000E976F18
:100EA000000E966F000E936F000E926F000E916F02
:100EB000000E906F000EAB6F000EAA6F58EF08F097
:100EC000A2C00CF0A3C00DF0A4C00EF0A5C00FF09E
:100ED000B4C010F0B5C011F0B6C012F0B7C013F036
:100EE00025EC11F00CC025F00DC026F00EC027F047
:100EF0000FC028F035EC13F025C0A6F026C0A7F0EF
:100F000027C0A8F028C0A9F0A6C00CF0A7C00DF01B
:100F1000A8C00EF0A9C00FF0ECEC17F00CC098F0D0
:100F20000DC099F06FB897EF07F099EF07F0B7EFA2
:100F300007F0000198519911D8A4A1EF07F0A3EF91
:100F400007F0B7EF07F0670EA119D8A4AAEF07F0D2
:100F5000ACEF07F0B7EF07F097BFB3EF07F0B1EFD3
:100F600007F0B7EF07F0904B912B0AEF08F0000164
:100F700092519311D8A4BFEF07F0C1EF07F0EFEF44
:100F800007F097BFC8EF07F0C6EF07F0EFEF07F0E5
:100F9000000EB225D96E010EB321DA6E2E0EDF6E71
:100FA000B24BB32B9F07D8A0A007000E936F010E82
:100FB000926FEFEF07F0EFEF07F0000EB225D96E5A
:100FC000010EB321DA6E300EDF6EB24BB32B9F07EA
:100FD000D8A0A0079007D8A09107EFEF07F0905195
:100FE0009111D8A4F6EF07F0F8EF07F0DDEF07F066
:100FF000FAEF07F0000EB225D96E010EB321DA6EBA
:101000009851300FDF6EB24BB32B9F07D8A0A007CB
:101010000AEF08F0A2C025F0A3C026F0A4C027F074
:10102000A5C028F0B4C010F0B5C011F0B6C012F0E1
:10103000B7C013F0A6C00CF0A7C00DF0A8C00EF00A
:10104000A9C00FF0EEEC0EF00CC029F00DC02AF094
:101050000EC02BF00FC02CF031EC1EF025C0A2F01A
:1010600026C0A3F027C0A4F028C0A5F0B4C00CF09F
:10107000B5C00DF0B6C00EF0B7C00FF0000E106E88
:10108000000E116E200E126E410E136E25EC11F043
:101090000CC0B4F00DC0B5F00EC0B6F00FC0B7F084
:1010A00000019607D8A09707AA4BAB2B58EF08F082
:1010B0009451AA5DAB51800A406E9551800A405808
:1010C000D8B065EF08F067EF08F079EF08F0B3BF2C
:1010D00073EF08F0B35109E14B0EB25DD8A073EF86
:1010E00008F075EF08F060EF07F079EF08F079EF9E
:1010F00008F092519311D8A480EF08F082EF08F025
:1011000095EF08F06FA887EF08F089EF08F095EFEA
:1011100008F0000EB225D96E010EB321DA6E2E0E44
:10112000DF6EB24BB32B95EF08F0000EB225D96EEF
:10113000010EB321DA6E000EDF6E650E9E19D8A483
:10114000A4EF08F0A6EF08F090EF09F0000EAB6FE7
:101150004F0EAA6F000EAA25D96E010EAB21DA6ED2
:10116000000EDF6E000E9B6F000E9A6FB1BFBDEFD9
:1011700008F0BBEF08F0C7EF08F0000E9B6F010E00
:101180009A6FB06DB11FD8B0B12BC7EF08F0000E49
:101190009D6F020E9C6FFAEF08F0AA07D8A0AB076C
:1011A000000EAA25D96E010EAB21DA6EB0C00CF08C
:1011B000B1C00DF0000E0F6E0A0E0E6E7FEC1AF02D
:1011C0000C50300FDF6EB0C012F0B1C013F0000E43
:1011D000156E0A0E146E9AEC19F012C0B0F013C01E
:1011E000B1F000019C07D8A09D079F07D8A0A007D9
:1011F000FAEF08F0B051B111D8A401EF09F003EFF4
:1012000009F0CDEF08F09DBF10EF09F09D5106E108
:101210009C05D8B00EEF09F010EF09F0CDEF08F003
:1012200012EF09F0AA07D8A0AB079A519B11D8A4D6
:101230001CEF09F01EEF09F024EF09F0000E8B6F90
:101240002B0E8A6F2AEF09F0000E8B6F2D0E8A6F1E
:101250002AEF09F0000EAA25D96E010EAB21DA6E35
:101260008AC0DFFF9F07D8A0A007AA07D8A0AB07B6
:10127000BF0E406EFF0E416E3F50426E436A4050BB
:1012800042264150432243500AE11A0E425CD8A044
:101290004CEF09F04FEF09F0010E50EF09F0000E8E
:1012A0008E6F8F6B5FEF09F03FC00CF00D6ABDECE5
:1012B0001EF00CC08EF00DC08FF05FEF09F0000142
:1012C0008E518F11D8A467EF09F069EF09F06FEF25
:1012D00009F0000E8D6F650E8C6F75EF09F0000E32
:1012E0008D6F450E8C6F75EF09F0000EAA25D96E33
:1012F000010EAB21DA6E8CC0DFFF9F07D8A0A007DC
:10130000000EB2250C6E010EB3210D6E000EAA2543
:101310000E6E010EAB210F6E21EC1DF090EF09F067
:1013200039C01CF03AC01DF0000E1E6E010E1F6E7B
:101330009FC020F0A0C021F057EC1BF01CC039F07A
:101340001DC03AF0A4EF09F012000F50800B1C6E84
:101350000F500F241E6E0EAEB0EF09F0B2EF09F081
:10136000B5EF09F01E80B5EF09F01E50D8B4BBEF01
:1013700009F0BDEF09F0D4EF09F01E28D8A4C3EF9F
:1013800009F0C5EF09F0CFEF09F0000E0C6E000E6A
:101390000D6E000E0E6E000E0F6ECFEF09F00E8E6A
:1013A000000E0F6EDEEF09F0000E0C6E000E0D6EDB
:1013B000000E0E6E000E0F6EDEEF09F01350800B64
:1013C0001D6E1C501D18D8B4E8EF09F0EAEF09F0C3
:1013D000EDEF09F01C8CEDEF09F0135013241D6E96
:1013E00012AEF5EF09F0F7EF09F0FAEF09F01D8002
:1013F000FAEF09F01D50D8B400EF0AF002EF0AF03E
:1014000019EF0AF01D28D8A408EF0AF00AEF0AF035
:1014100014EF0AF0000E106E000E116E000E126E28
:10142000000E136E14EF0AF0128E000E136E23EFEF
:101430000AF0000E106E000E116E000E126E000EFD
:10144000136E23EF0AF01E501D5CD8B02AEF0AF08D
:101450002CEF0AF057EF0AF01CAC31EF0AF033EF33
:101460000AF037EF0AF0800E1C1A37EF0AF01EC0A0
:101470001FF01DC01EF01FC01DF00CC01FF010C0DB
:101480000CF01FC010F00DC01FF011C00DF01FC0F8
:1014900011F00EC01FF012C00EF01FC012F00FC0EE
:1014A0001FF013C00FF01FC013F057EF0AF0000E2B
:1014B0001F6E1E50146E156A141E151E144A152A2E
:1014C0001D50166E176A145016261550172217BE97
:1014D00073EF0AF0175009E11A0E165CD8A073EFEB
:1014E0000AF075EF0AF0B2EF0AF00C500D100E1072
:1014F0000F10D8A47EEF0AF081EF0AF0010E82EF00
:101500000AF0000E1F6E000E0C6E000E0D6E000E27
:101510000E6E000E0F6E1DC01EF0BDEF0AF0B2EF92
:101520000AF01FA096EF0AF098EF0AF09EEF0AF07B
:10153000D8901F3001091F6EA2EF0AF0D8901F3219
:10154000A2EF0AF00CA0A7EF0AF0A9EF0AF0ACEFA7
:101550000AF01F8EACEF0AF00F340F320E320D324C
:101560000C321E2A1D501E5CD8A0B9EF0AF0BBEF4A
:101570000AF091EF0AF0BDEF0AF01CBCC2EF0AF0CE
:10158000C4EF0AF00CEF0BF01E50D8A4CAEF0AF01B
:10159000CCEF0AF0D8EF0AF0000E0C6E000E0D6EC4
:1015A000000E0E6E000E0F6E66EF0CF066EF0CF084
:1015B00010500C2611500D2212500E2213500F22E3
:1015C0000FA0E5EF0AF0E7EF0AF0BCEF0BF01FA069
:1015D000ECEF0AF0EEEF0AF0F4EF0AF0D8901F30CB
:1015E00001091F6EF8EF0AF0D8901F32F8EF0AF0E9
:1015F0000CA0FDEF0AF0FFEF0AF002EF0BF01F8ED8
:1016000002EF0BF00F340F320E320D320C321E2A65
:10161000BCEF0BF0BCEF0BF010500C5C11500D58F0
:1016200012500E580F50800A146E1350800A14582E
:10163000D8B01DEF0BF01FEF0BF05DEF0BF00CC0FF
:1016400014F00DC015F00EC016F00FC017F0141EE8
:10165000151E161E171E142A000E152216221722FA
:1016600010501424186E11501520196E12501620A7
:101670001A6E135017201B6EFF0E18240C6EFF0EEF
:1016800019200D6EFF0E1A200E6EFF0E1B200F6E1E
:10169000800E1C1A1F6C1F50D8A451EF0BF053EF93
:1016A0000BF065EF0BF0010E0C26000E0D220E2242
:1016B0000F2265EF0BF065EF0BF010500C5E115030
:1016C0000D5A12500E5A13500F5A0C500D100E1086
:1016D0000F10D8A46EEF0BF070EF0BF0B1EF0BF022
:1016E0001F50D8A476EF0BF078EF0BF0B1EF0BF0B2
:1016F000000E0C6E000E0D6E000E0E6E000E0F6EC4
:1017000066EF0CF066EF0CF0B1EF0BF0D8900C36F2
:101710000D360E360F361FAE90EF0BF092EF0BF03A
:1017200095EF0BF00C8095EF0BF01FA09AEF0BF0EC
:101730009CEF0BF0A0EF0BF0D8801F36A4EF0BF05E
:10174000D8901F36A4EF0BF01E50D8B4AAEF0BF0C0
:10175000ACEF0BF0B1EF0BF01E06B1EF0BF0B1EFF9
:101760000BF00EAEB6EF0BF0B8EF0BF086EF0BF010
:10177000BCEF0BF0BCEF0BF0000E1D6E1FAEC3EF05
:101780000BF0C5EF0BF0E1EF0BF01FC014F07F0E74
:101790001416D8B4CEEF0BF0D0EF0BF0D4EF0BF063
:1017A000010E1D6EE1EF0BF00CA0D9EF0BF0DBEF9B
:1017B0000BF0E1EF0BF0010E1D6EE1EF0BF0E1EF2E
:1017C0000BF01D50D8B4E7EF0BF0E9EF0BF01AEF78
:1017D0000CF0010E0C26000E0D220E220F220FA07F
:1017E000F4EF0BF0F6EF0BF01AEF0CF00CC014F066
:1017F0000DC015F00EC016F00FC017F017341732D9
:1018000016321532143214C00CF015C00DF016C08B
:101810000EF017C00FF01E28D8B411EF0CF013EF24
:101820000CF01AEF0CF01E2A1AEF0CF01AEF0CF065
:101830001AEF0CF01E28D8B420EF0CF022EF0CF0B9
:101840002CEF0CF01E50D8A428EF0CF02AEF0CF06F
:1018500042EF0CF02CEF0CF0000E0C6E000E0D6E33
:10186000000E0E6E000E0F6E1E50D8A43AEF0CF054
:101870003CEF0CF042EF0CF0000E1C6E42EF0CF04F
:1018800042EF0CF01EA047EF0CF049EF0CF04CEFCC
:101890000CF00E8E4FEF0CF00E9E4FEF0CF0D89028
:1018A0001E300F6E1CAE57EF0CF059EF0CF05CEFD2
:1018B0000CF00F8E5CEF0CF00CC00CF00DC00DF0B6
:1018C0000EC00EF00FC00FF066EF0CF0120047C014
:1018D000D9FF48C0DAFFDECFF6FFDDCFF7FF080003
:1018E000F550250AD8A477EF0CF079EF0CF0CEEF85
:1018F0000EF047C0D9FF48C0DAFFDE2A000EDD2215
:10190000000E6C6E000E6B6E6BC06FF06CC070F0F2
:101910006D686E6847C0D9FF48C0DAFFDECFF6FFBA
:10192000DDCFF7FF0800F5502E0AD8A49AEF0CF08F
:101930009CEF0CF037EF0DF0000E6E6E000E6D6E2A
:1019400047C0D9FF48C0DAFFDE2A000EDD2247C0BB
:10195000D9FF48C0DAFFDECFF6FFDDCFF7FF080082
:10196000F5502A0AD8A4B7EF0CF0B9EF0CF0D6EF77
:101970000CF047C0D9FF48C0DAFFDE2A000EDD2296
:1019800049C0D9FF4AC0DAFFDFCF4BF0020EDE2696
:10199000DFCF4CF0000EDD224BC0D9FF4CC0DAFF88
:1019A000DECF6DF0DDCF6EF037EF0DF047C0D9FF21
:1019B00048C0DAFFDECF13F0DDCF14F04EEC14F0A8
:1019C00013C06DF014C06EF0EFEF0CF047C0D9FFFC
:1019D00048C0DAFFDE2A000EDD22EFEF0CF0D00E59
:1019E0004B6EFF0E4C6E47C0D9FF48C0DAFFDECF0A
:1019F000F6FFDDCFF7FF0800F5504D6E4E6A4B50F5
:101A00004D264C504E224E500AE10A0E4D5CD8A095
:101A10000CEF0DF00FEF0DF0010E10EF0DF0000EBA
:101A20004F6E506A28EF0DF047C0D9FF48C0DAFF6B
:101A3000DECFF6FFDDCFF7FF0800F5500C6E0D6A24
:101A4000DBEC1EF00CC04FF00DC050F028EF0DF095
:101A50004F505010D8A42FEF0DF031EF0DF0E6EFFE
:101A60000CF037EF0DF037EF0DF037EF0DF047C00A
:101A7000D9FF48C0DAFFDECFF6FFDDCFF7FF080061
:101A8000F550126E136AACEC1CF01250576E5750A2
:101A9000D8B44DEF0DF04FEF0DF08BEF0DF047C0C8
:101AA000D9FF48C0DAFFDECF4BF0DDCF4CF0010E9E
:101AB0004B26000E4C224BC0F6FF4CC0F7FF08002F
:101AC000F550126E136AACEC1CF01250586E585060
:101AD000D8B46DEF0DF06FEF0DF08BEF0DF047C048
:101AE000D9FF48C0DAFFDECF4BF0DDCF4CF0020E5D
:101AF0004B26000E4C224BC0F6FF4CC0F7FF0800EF
:101B0000F550126E136AACEC1CF01250596E8BEF4C
:101B10000DF08BEF0DF0660E5718D8A492EF0DF074
:101B200094EF0DF0D6EF0DF047C0D9FF48C0DAFFB3
:101B3000DECFF6FFDDCFF7FF0800F5CF5AF047C044
:101B4000D9FF48C0DAFFDE2A000EDD2249C0D9FFE6
:101B50004AC0DAFFDFCF4BF0040EDE26DFCF4CF0B9
:101B6000000EDD224BC0D9FF4CC0DAFFDECF53F0B0
:101B7000DECF54F0DECF55F0DECF56F045C039F061
:101B800046C03AF053C03BF054C03CF055C03DF065
:101B900056C03EF05AC03FF013EC03F039C045F098
:101BA0003AC046F0EDEF0EF0EDEF0EF0570E0C6E72
:101BB000000E0D6E220E0E6E060E0F6E000E116ED2
:101BC000020E106E1CEC19F00C500D10D8A4EBEFA7
:101BD0000DF0EDEF0DF094EF0EF047C0D9FF48C0C7
:101BE000DAFFDECF4BF0DDCF4CF0010E4B26000EBE
:101BF0004C224BC0F6FF4CC0F7FF0800F5CF5AF05F
:101C0000BF0E4B6EFF0E4C6E47C0D9FF48C0DAFFC7
:101C1000DECFF6FFDDCFF7FF0800F5504D6E4E6AC0
:101C20004B504D264C504E224E500AE11A0E4D5C40
:101C3000D8A01DEF0EF020EF0EF0010E21EF0EF0F8
:101C4000000E516E526A39EF0EF047C0D9FF48C0FE
:101C5000DAFFDECFF6FFDDCFF7FF0800F5500C6EA0
:101C60000D6ABDEC1EF00CC051F00DC052F039EF02
:101C70000EF051505210D8B440EF0EF042EF0EF07B
:101C80005CEF0EF049C0D9FF4AC0DAFFDFCF4BF05E
:101C9000040EDE26DFCF4CF0000EDD224BC0D9FF54
:101CA0004CC0DAFFDECF53F0DECF54F0DECF55F07C
:101CB000DECF56F074EF0EF049C0D9FF4AC0DAFF0C
:101CC000DFCF4BF0040EDE26DFCF4CF0000EDD221E
:101CD0004BC0D9FF4CC0DAFFDECF53F0DECF54F05B
:101CE000DECF55F0DECF56F0020E47C0D9FF48C018
:101CF000DAFFDE26000EDD2245C039F046C03AF09C
:101D000053C03BF054C03CF055C03DF056C03EF0CF
:101D10005AC03FF013EC03F039C045F03AC046F02A
:101D2000EDEF0EF0EDEF0EF047C0D9FF48C0DAFF3F
:101D3000DECFF6FFDDCFF7FF0800F550250AD8A467
:101D4000A4EF0EF0A6EF0EF0BFEF0EF047C0D9FFE4
:101D500048C0DAFFDE2A000EDD22000E0D6E250ED1
:101D60000C6E45C00EF046C00FF010EC1AF0000EDD
:101D7000466E010E456EEDEF0EF0EDEF0EF047C032
:101D8000D9FF48C0DAFFDE2A000EDD22000E466EC3
:101D9000000E456EEDEF0EF0EDEF0EF047C0D9FFEF
:101DA00048C0DAFFDECFF6FFDDCFF7FF0800F550C1
:101DB0000C6E0D6A45C00EF046C00FF010EC1AF024
:101DC00047C0D9FF48C0DAFFDE2A000EDD22000E30
:101DD000466E010E456EEDEF0EF012000F50800BB7
:101DE000186E0F500F241E6E0EAEF9EF0EF0FBEFC3
:101DF0000EF0FEEF0EF01E80FEEF0EF01E50D8B477
:101E000004EF0FF006EF0FF01BEF0FF01E28D8A421
:101E10000CEF0FF00EEF0FF018EF0FF0000E0C6E3E
:101E2000000E0D6E000E0E6E000E0F6E18EF0FF00E
:101E30000E8E25EF0FF0000E0C6E000E0D6E000ED4
:101E40000E6E000E0F6E25EF0FF01350800B181A58
:101E500013501324196E12AE30EF0FF032EF0FF063
:101E600035EF0FF0198035EF0FF01950D8B43BEF74
:101E70000FF03DEF0FF052EF0FF01928D8A443EF09
:101E80000FF045EF0FF04FEF0FF0000E106E000E49
:101E9000116E000E126E000E136E4FEF0FF0128EC9
:101EA0005AEF0FF0000E106E000E116E000E126E43
:101EB000000E136E1950D8B460EF0FF062EF0FF000
:101EC0006CEF0FF01E50D8A468EF0FF06AEF0FF020
:101ED00078EF0FF06CEF0FF0000E0C6E000E0D6E31
:101EE000000E0E6E000E0F6E24EF11F024EF11F0B5
:101EF00012500C02F3CF23F0F4CF24F023501A6ECB
:101F00001B6A1C6A1D6A24501F6E206A216A226A9D
:101F100011500D02F3CF23F0F4CF24F023501A26F2
:101F2000000E1B221C221D2224501F26000E2022E0
:101F30002122222210500E02F3CF23F0F4CF24F0FE
:101F400023501A26000E1B221C221D2224501F265D
:101F5000000E2022212222221CC01DF01BC01CF0DA
:101F60001AC01BF01A6A10500D02F3CF23F0F4CF01
:101F700024F023501A2624501B22000E1C22000E8F
:101F80001D2211500C02F3CF23F0F4CF24F0235084
:101F90001A2624501B22000E1C22000E1D221CC0DB
:101FA0001DF01BC01CF01AC01BF01A6A10500C0266
:101FB000F3CF23F0F4CF24F023501A2624501B2211
:101FC000000E1C22000E1D2212500D02F3CF23F032
:101FD000F4CF24F023501F2624502022000E21226B
:101FE000000E222211500E02F3CF23F0F4CF24F082
:101FF00023501F2624502022000E2122000E2222D0
:1020000012500E02F3CF23F0F4CF24F02350146EBD
:102010002450156E166A176A16C017F015C016F010
:1020200014C015F0146A14501F26155020221650A3
:102030002122175022221AC014F01BC015F01CC018
:1020400016F01DC017F0190E2BEF10F0D8901732B4
:10205000163215321432E82E26EF10F014501F26D7
:102060001550202216502122175022221CC01DF08C
:102070001BC01CF01AC01BF01A6A19501EC014F0C5
:10208000156A1426000E1522820E1424236EFF0EEC
:102090001520246E63EF10F0D8901F3620362136BD
:1020A00022361DAE56EF10F058EF10F059EF10F039
:1020B0001F80D8901A361B361C361D362306D8A032
:1020C000240663EF10F021AE68EF10F06AEF10F015
:1020D0004CEF10F06CEF10F0000E196E1DAE73EFA8
:1020E00010F075EF10F09DEF10F0FF0E1A14146E43
:1020F000FF0E1B14156EFF0E1C14166E7F0E1D14A2
:10210000176E1450151016101710D8B48AEF10F06F
:102110008CEF10F090EF10F0010E196E9DEF10F0A3
:102120001FA095EF10F097EF10F09DEF10F0010E4B
:10213000196E9DEF10F09DEF10F01950D8B4A3EF79
:1021400010F0A5EF10F0CDEF10F0010E1F26000EDD
:1021500020222122222222A0B0EF10F0B2EF10F0B4
:10216000CDEF10F01FC014F020C015F021C016F004
:1021700022C017F01734173216321532143214C039
:102180001FF015C020F016C021F017C022F0234A1E
:10219000242ACDEF10F0CDEF10F024BED8EF10F0D0
:1021A000245008E12328D8A0D8EF10F0DAEF10F07F
:1021B000E4EF10F0000E1F6E000E206E800E216EF8
:1021C0007F0E226E18EF11F024BEF1EF10F02450B4
:1021D00006E12304D8B0EFEF10F0F1EF10F0FDEFBF
:1021E00010F0000E1F6E000E206E000E216E000E0D
:1021F000226E000E186E18EF11F023C01EF0FF0EB5
:102200001F16FF0E20167F0E2116000E22161EA08E
:102210000CEF11F00EEF11F011EF11F0218E11EF14
:1022200011F0D8901E30226E18EF11F018EF11F057
:10223000185022121FC00CF020C00DF021C00EF06B
:1022400022C00FF024EF11F012000F50800B1C6E13
:102250000F500F24236E0EAE30EF11F032EF11F05D
:1022600035EF11F0238035EF11F02350D8B43BEF58
:1022700011F03DEF11F054EF11F02328D8A443EFF3
:1022800011F045EF11F04FEF11F0000E0C6E000E43
:102290000D6E000E0E6E000E0F6E4FEF11F00E8ED3
:1022A000000E0F6E5EEF11F0000E0C6E000E0D6E44
:1022B000000E0E6E000E0F6E5EEF11F01350800BCD
:1022C0001C1A13501324246E12AE69EF11F06BEF39
:1022D00011F06EEF11F024806EEF11F02450D8B49D
:1022E00074EF11F076EF11F08DEF11F02428D8A4DF
:1022F0007CEF11F07EEF11F088EF11F0000E106E00
:10230000000E116E000E126E000E136E88EF11F0AB
:10231000128E000E136E97EF11F0000E106E000E6D
:10232000116E000E126E000E136E97EF11F010502A
:10233000111012101310D8A4A0EF11F0A2EF11F099
:10234000BCEF11F0000E0C6E000E0D6E000E0E6E46
:10235000000E0F6E800E0E127F0E0F121C500F1209
:102360000CC00CF00DC00DF00EC00EF00FC00FF041
:1023700034EF13F034EF13F02350D8A4C2EF11F070
:10238000C4EF11F0D8EF11F0000E0C6E000E0D6EC0
:10239000000E0E6E000E0F6E0CC00CF00DC00DF096
:1023A0000EC00EF00FC00FF034EF13F034EF13F047
:1023B0002450146E156A141E151E144A152A235033
:1023C000166E176A14501626155017227F0E162403
:1023D0001D6E000E17201E6E0CC018F00DC019F0F7
:1023E0000EC01AF00FC01BF0000E0C6E000E0D6E2A
:1023F000000E0E6E000E0F6E000E1F6E000E206E91
:10240000000E216E000E226E000E246E44EF12F0BC
:102410002450D8B40EEF12F010EF12F029EF12F0A2
:10242000D890183619361A361B36D8900C360D3619
:102430000E360F3622AE1FEF12F021EF12F022EF10
:1024400012F00C80D8901F3620362136223629EF24
:1024500012F01050185C1150195812501A5813509D
:102460001B58D8A036EF12F038EF12F043EF12F0FD
:10247000228C1050185E1150195A12501A5A1350CB
:102480001B5A43EF12F0242A190E24644AEF12F06B
:102490004CEF12F008EF12F04EEF12F01850191036
:1024A0001A101B10D8B457EF12F059EF12F075EF55
:1024B00012F01F8075EF12F075EF12F0D8900C3605
:1024C0000D360E360F3622AE68EF12F06AEF12F0BC
:1024D0006BEF12F00C80D8901F3620362136223652
:1024E0001D06D8A01E0675EF12F00EAE7AEF12F0A0
:1024F0007CEF12F05EEF12F07EEF12F0000E246E11
:1025000022AE85EF12F087EF12F0AFEF12F0FF0E60
:102510001F14146EFF0E2014156EFF0E2114166E7C
:102520007F0E2214176E1450151016101710D8B401
:102530009CEF12F09EEF12F0A2EF12F0010E246E4B
:10254000AFEF12F00CA0A7EF12F0A9EF12F0AFEF6F
:1025500012F0010E246EAFEF12F0AFEF12F0245024
:10256000D8B4B5EF12F0B7EF12F0DFEF12F0010EB2
:102570000C26000E0D220E220F220FA0C2EF12F029
:10258000C4EF12F0DFEF12F00CC014F00DC015F024
:102590000EC016F00FC017F017341732163215326E
:1025A000143214C00CF015C00DF016C00EF017C098
:1025B0000FF01D4A1E2ADFEF12F0DFEF12F01EBEF1
:1025C000EAEF12F01E5008E11D28D8A0EAEF12F041
:1025D000ECEF12F0F9EF12F0000E1E6E1D68000E07
:1025E0000C6E000E0D6E000E0E6E000E0F6EF9EFEB
:1025F00012F01EBE06EF13F01E5006E11D04D8B007
:1026000004EF13F006EF13F016EF13F0000E1E6E3A
:10261000000E1D6E000E0C6E000E0D6E000E0E6E86
:10262000000E0F6E000E1C6E16EF13F01DC023F08F
:1026300023A01DEF13F01FEF13F022EF13F00E8E07
:1026400025EF13F00E9E25EF13F0D89023300F6E78
:102650001C500F120CC00CF00DC00DF00EC00EF08F
:102660000FC00FF034EF13F0120061C035F062C0FC
:1026700036F063C037F064C038F025C035F026C0AE
:1026800036F027C037F028C038F0810E296EFF0ED3
:102690002A6E35C02BF036C02CF037C02DF038C074
:1026A0002EF0180E59EF13F0D8902E322D322C3216
:1026B0002B32E82E54EF13F02B502924336E000EEA
:1026C0002A20346E34BE6EEF13F0345009E1170E39
:1026D000335CD8A06EEF13F070EF13F07AEF13F0C5
:1026E00025C025F026C026F027C027F028C028F0F6
:1026F0004DEF14F034BE7FEF13F081EF13F0F9EFDC
:1027000013F033C029F0FF0E2A6EFF0E2B6E7F0EE2
:102710002C6E000E2D6E296690EF13F098EF13F0DB
:102720002D342D322C322B322A32292E8BEF13F0FE
:102730002AC02FF02BC030F02CC031F02DC032F069
:102740002F503514296E305036142A6E31503714FC
:102750002B6E325038142C6E29502A102B102C104E
:10276000D8A4B5EF13F0B7EF13F0C1EF13F025C005
:1027700025F026C026F027C027F028C028F04DEF0E
:1027800014F035C029F036C02AF037C02BF038C01D
:102790002CF0200ED1EF13F0D8902C322B322A32AD
:1027A0002932E82ECCEF13F029502A102B102C10D0
:1027B000D8B4DDEF13F0DFEF13F0E7EF13F02F5095
:1027C00035263050362231503722325038222F1CD5
:1027D000296E301C2A6E311C2B6E321C2C6E295037
:1027E00035162A5036162B5037162C50381643EF14
:1027F00014F035C029F036C02AF037C02BF038C0AD
:102800002CF0200E09EF14F0D8902C322B322A3203
:102810002932E82E04EF14F029502A102B102C1026
:10282000D8A415EF14F017EF14F021EF14F0000EF8
:10283000356E000E366E000E376E000E386E43EFAA
:1028400014F0D8903534296E36342A6E37342B6E16
:1028500038342C6E29502A102B102C10D8B433EF9A
:1028600014F035EF14F043EF14F0000E356E000E47
:10287000366E800E376EBF0E386E43EF14F043EFA6
:1028800014F043EF14F035C025F036C026F037C001
:1028900027F038C028F04DEF14F01200000E216E22
:1028A000000E206E000E1A6E000E196E5CEF14F012
:1028B000134A142A5CEF14F0010E1F6E13C0F6FFCA
:1028C00014C0F7FF0800F550200AD8B46AEF14F0DE
:1028D0006CEF14F08BEF14F0F70E156EFF0E166E02
:1028E00013C0F6FF14C0F7FF0800F550176E186A02
:1028F0001550172616501822185009E1050E175CBE
:10290000D8A085EF14F087EF14F08BEF14F0000ED1
:102910001F6E8BEF14F01FC01BF01C6AA0EF14F0A9
:1029200013C0F6FF14C0F7FF0800F5500C6E0D6AD7
:10293000B5EC1DF00CC01BF00DC01CF0A0EF14F0A6
:102940001B501C10D8A4A7EF14F0A9EF14F058EFF7
:1029500014F0B7EF14F0B7EF14F0000E1A6E010E7A
:10296000196EB3EF14F0134A142AFBEF14F013C0DE
:10297000F6FF14C0F7FF0800F550156E166A1650E2
:10298000000AD8B4C6EF14F0FBEF14F015502B0A70
:10299000D8B4B3EF14F0060AD8B4ADEF14F0FBEFDF
:1029A00014F0FBEF14F0D00E156EFF0E166E13C070
:1029B000F6FF14C0F7FF0800F550176E186A15509F
:1029C000172616501822171E181E174A182A20C03C
:1029D0000CF021C00DF0000E0F6E0A0E0E6E12EC00
:1029E0001FF017500C24206E18500D20216E134A32
:1029F000142AFBEF14F0D00E156EFF0E166E13C0E6
:102A0000F6FF14C0F7FF0800F550176E186A15504E
:102A100017261650182218500AE10A0E175CD8A083
:102A200014EF15F017EF15F0010E18EF15F0000E6A
:102A30001D6E1E6A2CEF15F013C0F6FF14C0F7FFD1
:102A40000800F5500C6E0D6ADBEC1EF00CC01DF09A
:102A50000DC01EF02CEF15F01D501E10D8A433EF42
:102A600015F035EF15F0D3EF14F037EF15F01950DE
:102A70001A10D8A43EEF15F040EF15F04EEF15F008
:102A800020C015F021C016F0151E161E154A162A74
:102A900015C013F016C014F054EF15F020C013F059
:102AA00021C014F054EF15F012006AEC1FF059EF3A
:102AB00015F0E60E0E6E000E0F6E8DEC1FF00CC0C2
:102AC00010F00DC011F0000E136E140E126E1DECFE
:102AD0001CF06D0E0001E619D8A471EF15F073EF2C
:102AE00015F09DEF15F06F0EE719D8A47AEF15F0E9
:102AF0007CEF15F09DEF15F0640EE819D8A483EF74
:102B000015F085EF15F09DEF15F0650EE919D8A4C5
:102B10008CEF15F08EEF15F09DEF15F0310EEA19E0
:102B2000D8A495EF15F097EF15F09DEF15F082EC16
:102B30001FF0ECEC1CF059EF15F06D0E0001E619DA
:102B4000D8A4A5EF15F0A7EF15F059EF15F06F0E0B
:102B5000E719D8A4AEEF15F0B0EF15F059EF15F066
:102B6000640EE819D8A4B7EF15F0B9EF15F059EFD6
:102B700015F0650EE919D8A4C0EF15F0C2EF15F0F5
:102B800059EF15F0320EEA19D8A4C9EF15F0CBEFC2
:102B900015F059EF15F0CDEF15F0000E0D6E070E84
:102BA0000C6E7AEC1EF00CC0DAF00DC0DBF0030EF8
:102BB000156E1468DAC00CF0DBC00DF0000E0F6E5D
:102BC000050E0E6E12EC1FF00CC012F00DC013F0CB
:102BD0009AEC19F012C01AF013C01BF0000E1BBEC5
:102BE000FF0E1C6E1D6E010E4AEC16F01AC0D6F0D8
:102BF0001BC0D7F01CC0D8F01DC0D9F020EEDCF00F
:102C000010EECCF0090EDBCFE3FFE806FCE2CC0EC1
:102C10000001BA6F000EBB6F0D0EBC6F060EBD6FCC
:102C2000D6C0BEF0D7C0BFF0D8C0C0F0D9C0C1F088
:102C300086EC1DF0CC0E0D6E000E0E6E69EC1CF0D5
:102C4000E60E0E6E000E0F6E8DEC1FF00CC010F035
:102C50000DC011F0000E136E140E126E1DEC1CF060
:102C6000ECEC1CF0650E0001E619D8A43AEF16F062
:102C70003CEF16F0CDEF15F03EEF16F0ECEC1CF04B
:102C800059EF15F059EF15F059EF15F059EF15F010
:102C90003CEF00F0226E2250D8B451EF16F053EF03
:102CA00016F075EF16F01DBE5AEF16F058EF16F03D
:102CB00075EF16F01AC01EF01BC01FF01CC020F0EC
:102CC0001DC021F01E1E1F1E201E211E1E2A000ECA
:102CD0001F22202221221EC024F01FC025F020C068
:102CE00026F021C027F07FEF16F01AC024F01BC099
:102CF00025F01CC026F01DC027F07FEF16F01A50FB
:102D00001B101C101D10D8A488EF16F08AEF16F0C7
:102D100096EF16F0000E1A6E000E1B6E000E1C6E63
:102D2000000E1D6E37EF17F037EF17F0960E236E7B
:102D3000A2EF16F0232AD8902732263225322432E9
:102D4000A2EF16F0000E24141E6E000E25141F6E46
:102D5000000E2614206EFE0E2714216E1E501F102A
:102D600020102110D8A4B7EF16F0B9EF16F09AEFA3
:102D700016F0C9EF16F0C9EF16F0232A010E24262B
:102D8000000E252226222722D890273226322532ED
:102D90002432000E24141E6E000E25141F6E000E29
:102DA0002614206EFF0E2714216E1E501F102010B7
:102DB0002110D8A4DEEF16F0E0EF16F0BDEF16F00C
:102DC000ECEF16F0ECEF16F02306D89024362536FB
:102DD00026362736ECEF16F026BEF1EF16F0F3EFAD
:102DE00016F0FDEF16F0020E2360F9EF16F0FBEF80
:102DF00016F0E4EF16F0FDEF16F023B002EF17F037
:102E000004EF17F007EF17F0269E07EF17F0D890A2
:102E1000233223C01EF01F6A206A216A1EC021F0DF
:102E2000206A1F6A1E6A1E5024121F50251220504D
:102E30002612215027122250D8B421EF17F023EF89
:102E400017F02DEF17F01DBE2AEF17F028EF17F03F
:102E50002DEF17F0278E2DEF17F024C01AF025C0A4
:102E60001BF026C01CF027C01DF037EF17F0120032
:102E7000000E25142D6E000E26142E6E800E2714C3
:102E80002F6E7F0E2814306E2D502E102F10301004
:102E9000D8A44DEF17F04FEF17F059EF17F0000ED1
:102EA000256E000E266E000E276E000E286E59EF5E
:102EB00017F0000E29142D6E000E2A142E6E800EAF
:102EC0002B142F6E7F0E2C14306E2D502E102F10C1
:102ED0003010D8A46EEF17F070EF17F07AEF17F0FC
:102EE000000E296E000E2A6E000E2B6E000E2C6E48
:102EF0007AEF17F028AE7FEF17F081EF17F0A0EF11
:102F000017F025C02DF026C02EF027C02FF028C0C6
:102F100030F02D1E2E1E2F1E301E2D2A000E2E22AA
:102F20002F223022000E2D24256E000E2E20266E1C
:102F3000000E2F20276E800E3020286EA0EF17F095
:102F40002CAEA5EF17F0A7EF17F0C4EF17F029C0CC
:102F50002DF02AC02EF02BC02FF02CC030F02D1EEB
:102F60002E1E2F1E301E2D2A000E2E222F22302222
:102F7000000E2D24296E000E2E202A6E000E2F200A
:102F80002B6E800E30202C6E000E251A000E261A95
:102F9000000E271A800E281A000E291A000E2A1A6F
:102FA000000E2B1A800E2C1A2950255C2A50265808
:102FB0002B5027582C502858D8B0E1EF17F0E3EFEA
:102FC00017F0E6EF17F0D890EBEF17F0D880EBEFA3
:102FD00017F0EBEF17F012000E340F34156E15508A
:102FE000D8A4F5EF17F0F7EF17F003EF18F0000E85
:102FF0000C6E000E0D6E000E0E6E000E0F6E94EF36
:1030000018F094EF18F00CC010F00DC011F00EC0C5
:1030100012F00FC013F0200E13EF18F0D8901332F7
:10302000123211321032E82E0EEF18F01050146EDA
:103030000E8EFF0E0C16FF0E0D16FF0E0E16000E56
:103040000F16960E155E15BE2AEF18F028EF18F031
:103050004EEF18F01550800A970FD8B032EF18F0E5
:1030600034EF18F042EF18F0000E0C6E000E0D6EEB
:10307000000E0E6E000E0F6E94EF18F094EF18F025
:1030800042EF18F0D8900F320E320D320C32153E4E
:1030900042EF18F078EF18F078EF18F01F0E156473
:1030A00054EF18F056EF18F06CEF18F0000E0C6E9D
:1030B000000E0D6E000E0E6E000E0F6E94EF18F0E7
:1030C00094EF18F06CEF18F0D8900C360D360E36E1
:1030D0000F3615066CEF18F01550D8A472EF18F0E3
:1030E00074EF18F064EF18F078EF18F078EF18F03C
:1030F0001450D8B47EEF18F080EF18F08AEF18F073
:103100000F1E0E1E0D1E0C6C000E0D220E220F2225
:103110008AEF18F00CC00CF00DC00DF00EC00EF0D0
:103120000FC00FF094EF18F0120065C016F066C0E3
:1031300017F067C018F068C019F00CC016F00DC089
:1031400017F00EC018F00FC019F016C010F017C01D
:1031500011F018C012F019C013F0180EB5EF18F0E6
:10316000D8901332123211321032E82EB0EF18F02C
:103170001050146E156A14501510D8A4C2EF18F030
:10318000C4EF18F0E8EF18F0D8901634106E17342A
:10319000116E1834126E1934136E10501110121073
:1031A0001310D8A4D6EF18F0D8EF18F0DEEF18F00F
:1031B000000E0D6E020E0C6E1BEF19F0000E0D6E60
:1031C000030E0C6E1BEF19F01BEF19F01BEF19F03B
:1031D00014281510D8A4EFEF18F0F1EF18F015EF40
:1031E00019F016C010F017C011F018C012F019C075
:1031F00013F0090ED8901036113612361336E82E19
:10320000FAEF18F01050111012101310D8B40BEF81
:1032100019F00EEF19F0010E0FEF19F0000E0C6E01
:103220000D6A1BEF19F01BEF19F0000E0D6E040E66
:103230000C6E1BEF19F012000CC015F00DC016F04B
:103240000EC017F00FC018F01006D8A011061028F5
:1032500006E11128D8A42FEF19F031EF19F044EF4F
:1032600019F0000E0D6E000E0C6E99EF19F099EF2B
:1032700019F044EF19F0154A162A174A182A1006B1
:10328000D8A0110644EF19F015C0D9FF16C0DAFF17
:10329000DF50D8B44EEF19F050EF19F07FEF19F06E
:1032A00017C0F6FF18C0F7FF0800F5500009D8B4A2
:1032B0005CEF19F05EEF19F07FEF19F0105011106C
:1032C000D8B465EF19F067EF19F07FEF19F015C06A
:1032D000D9FF16C0DAFFDF50126E17C0F6FF18C014
:1032E000F7FF0800F5501218D8B479EF19F07BEF0A
:1032F00019F03BEF19F07FEF19F07FEF19F017C0CD
:10330000F6FF18C0F7FF0800F550126E136A121E80
:10331000131E124A132A15C0D9FF16C0DAFFDF5058
:10332000146E145012240C6E000E13200D6E99EFC3
:1033300019F01200000E176E15BEA3EF19F0A1EFE1
:1033400019F0ABEF19F0146C151ED8B0152A010E48
:10335000176EABEF19F013BEB2EF19F0B0EF19F022
:10336000BAEF19F0126C131ED8B0132A010E171AF7
:10337000BAEF19F0000E196E000E186E14501510E9
:10338000D8B4C5EF19F0C7EF19F0FBEF19F0010E33
:10339000166ED1EF19F0D89014361536162AD1EFE3
:1033A00019F015AED6EF19F0D8EF19F0CBEF19F0F0
:1033B000DCEF19F0DCEF19F0D890183619361450FC
:1033C000125C15501358D8A0E8EF19F0EAEF19F085
:1033D000F1EF19F01450125E1550135A1880F1EFE6
:1033E00019F0D89015321432162EDCEF19F0FBEFDD
:1033F00019F0FBEF19F01750D8B401EF1AF003EFF2
:103400001AF009EF1AF0186C191ED8B0192A09EF32
:103410001AF018C012F019C013F00FEF1AF01200D2
:103420000E500F10D8B417EF1AF019EF1AF024EF5E
:103430001AF00E500F10D8A420EF1AF022EF1AF055
:1034400029EF1AF024EF1AF00C50A2EC1FF07EEFD7
:103450001AF020EE04F00E50D9260F50DA22DE507A
:10346000DE10D8B436EF1AF038EF1AF055EF1AF034
:1034700020EE04F00E50D9260F50DA2210EE02F0A2
:103480000E50E1260F50E222DE50E65CE650800A44
:10349000146EDE50800A1458D8B051EF1AF053EF72
:1034A0001AF07EEF1AF055EF1AF020EE02F00E50EF
:1034B000D9260F50DA22DECF10F0DDCF11F00EC08A
:1034C000D9FF0FC0DAFFDECF12F0DDCF13F01050BE
:1034D0001224D96E11501320DA6E0CC0DFFF20EEDB
:1034E00002F00E50D9260F50DA22DE2A000EDD221D
:1034F0007EEF1AF07EEF1AF07EEF1AF01200000E47
:10350000116E0DBE88EF1AF086EF1AF090EF1AF0E8
:103510000C6C0D1ED8B00D2A010E116E90EF1AF032
:103520000FBE97EF1AF095EF1AF09DEF1AF00E6CA0
:103530000F1ED8B00F2A9DEF1AF00E500F10D8B4FE
:10354000A4EF1AF0A6EF1AF0D6EF1AF0010E106EE3
:10355000B0EF1AF0D8900E360F36102AB0EF1AF0EE
:103560000FAEB5EF1AF0B7EF1AF0AAEF1AF0BBEFF3
:103570001AF0BBEF1AF00E500C5C0F500D58D8A08B
:10358000C4EF1AF0C6EF1AF0CCEF1AF00E500C5E32
:103590000F500D5ACCEF1AF0D8900F320E32102E79
:1035A000BBEF1AF0D6EF1AF0D6EF1AF01150D8B4DC
:1035B000DCEF1AF0DEEF1AF0E4EF1AF00C6C0D1EDF
:1035C000D8B00D2AE4EF1AF00CC00CF00DC00DF0CD
:1035D000EAEF1AF01200000E066E02BEF4EF1AF0C7
:1035E000F2EF1AF0FCEF1AF0016C021ED8B0022ABA
:1035F000010E066EFCEF1AF004BE03EF1BF001EFA4
:103600001BF009EF1BF0036C041ED8B0042A09EF6D
:103610001BF003500410D8B410EF1BF012EF1BF096
:1036200042EF1BF0010E056E1CEF1BF0D890033625
:103630000436052A1CEF1BF004AE21EF1BF023EF2C
:103640001BF016EF1BF027EF1BF027EF1BF00350CA
:10365000015C04500258D8A030EF1BF032EF1BF091
:1036600038EF1BF00350015E0450025A38EF1BF094
:10367000D89004320332052E27EF1BF042EF1BF0E7
:1036800042EF1BF00650D8B448EF1BF04AEF1BF096
:1036900050EF1BF0016C021ED8B0022A50EF1BF055
:1036A00001C001F002C002F056EF1BF012006FA043
:1036B0005CEF1BF05EEF1BF06AEF1BF01EC015F015
:1036C0001FC016F01CC017F01DC018F00BEC1EF048
:1036D0006AEF1BF021BE6FEF1BF071EF1BF077EF6D
:1036E0001BF020C025F021C026F07BEF1BF0000E60
:1036F000266E000E256E000E246E000E236E8FEFD8
:103700001BF0000E0D6E200E0C6E1CC00EF01DC0C6
:103710000FF010EC1AF0234A242A8FEF1BF02550EB
:10372000235C2450800A226E2650800A2258D8A09A
:103730009CEF1BF09EEF1BF081EF1BF06FB0A3EF2F
:103740001BF0A5EF1BF0B1EF1BF01EC015F01FC062
:1037500016F01CC017F01DC018F00BEC1EF0B1EFF6
:103760001BF01EC00CF01FC00DF0E2EC1DF0255048
:103770000C241C6E26500D201D6EBFEF1BF0120096
:10378000000E0C14146E000E0D14156E800E0E1427
:10379000166E7F0E0F14176E14501510161017109A
:1037A000D8A4D5EF1BF0D7EF1BF0E1EF1BF0000E14
:1037B0000C6E000E0D6E000E0E6E000E0F6EE1EF21
:1037C0001BF0000E1014146E000E1114156E800EF6
:1037D0001214166E7F0E1314176E14501510161057
:1037E0001710D8A4F6EF1BF0F8EF1BF002EF1CF057
:1037F000000E106E000E116E000E126E000E136E93
:1038000002EF1CF010500C180FE111500D180CE1D4
:1038100012500E1809E113500F18D8B412EF1CF013
:1038200014EF1CF017EF1CF0D8901CEF1CF0D880A0
:103830001CEF1CF01CEF1CF012000EC014F00FC0A7
:1038400015F042EF1CF01206D8A0130610C0D9FFE5
:1038500011C0DAFF104A112A14C0E1FF15C0E2FFBF
:10386000144A152ADFCFE7FFE750D8A43AEF1CF03F
:103870003CEF1CF042EF1CF059EF1CF059EF1CF02C
:1038800042EF1CF012501310D8A449EF1CF04BEF7C
:103890001CF023EF1CF059EF1CF059EF1CF014C082
:1038A000D9FF15C0DAFF000EDF6E144A152A59EF52
:1038B0001CF01206D8A01306122806E11328D8A47B
:1038C00064EF1CF066EF1CF04FEF1CF068EF1CF08B
:1038D0001200000E126E000E116E8BEF1CF01150D4
:1038E0000D240F6E12500E20106E0FC0F6FF10C088
:1038F000F7FFF86A050EF76403D00800F55005D00D
:10390000F6CFE1FFF7CFE2FFE7504CEC1FF0114A92
:10391000122A8BEF1CF011500D240F6E12500E2046
:10392000106E0FC0F6FF10C0F7FFF86A050EF764BF
:1039300003D00800F55005D0F6CFE1FFF7CFE2FF46
:10394000E7500009D8A4A7EF1CF0A9EF1CF06FEF17
:103950001CF0ABEF1CF01200BF0E146EFF0E156EC4
:1039600012C016F013C017F0145016261550172267
:1039700017500AE11A0E165CD8A0C1EF1CF0C4EF74
:103980001CF0010EC5EF1CF0000E186E196AD5EF81
:103990001CF012C00CF013C00DF0BDEC1EF00CC0FA
:1039A00018F00DC019F0D5EF1CF018501910D8B44C
:1039B000DCEF1CF0DEEF1CF0E7EF1CF0200E121025
:1039C000126E1350136EEBEF1CF0EBEF1CF012C0F5
:1039D00012F013C013F01200000E0D6E000E0C6EEC
:1039E0000DBEFCEF1CF00D5009E10A0E0C5CD8A0D6
:1039F000FCEF1CF0FEEF1CF002EF1DF01CEF1DF0C1
:103A00001CEF1DF0500E0C24D96E010E0D20DA6E45
:103A1000000EDF6E0C4A0D2A0DBE18EF1DF00D5082
:103A200009E10A0E0C5CD8A018EF1DF01AEF1DF08A
:103A300002EF1DF01CEF1DF0000E726E000E716E95
:103A400012000EC012F00FC013F00CC014F00DC025
:103A500015F02DEF1DF02DEF1DF01250106E1350CC
:103A6000116E124A132A10C0F6FF11C0F7FFF86A50
:103A700014C0D9FF15C0DAFF144A152A050EF764E1
:103A800003D00800F55005D0F6CFE1FFF7CFE2FFF5
:103A9000E750DF6EDF50D8A450EF1DF052EF1DF05D
:103AA0002DEF1DF054EF1DF012005DC0B8F05EC0A8
:103AB000B9F0000E6A6E000E696E73EF1DF05BC008
:103AC00045F05CC046F0B80E476E000E486E5FC011
:103AD00049F060C04AF067EC0CF04550692646504A
:103AE0006A2273EF1DF0B8C0F6FFB9C0F7FF0800F7
:103AF000F5500009D8A47FEF1DF081EF1DF05FEFB6
:103B00001DF069C05BF06AC05CF01200BE0E0001DF
:103B1000C46F000EC56FBAC0C6F0BBC0C7F0000EC0
:103B2000C96F000EC86F000ECB6F000ECA6FC60EB5
:103B30005B6E000E5C6EBCC05DF0BDC05EF0C40E7E
:103B40005F6E000E606E55EC1DF05BC0C2F05CC095
:103B5000C3F00001C851BA25D96EC951BB21DA6E34
:103B6000000EDF6EB4EF1DF01200010E126E200E7B
:103B70000C180D10D8B4BFEF1DF0C1EF1DF0DCEF35
:103B80001DF0F70E0E6EFF0E0F6E0CC010F00DC084
:103B900011F00E5010260F501122115009E1050EA0
:103BA000105CD8A0D6EF1DF0D8EF1DF0DCEF1DF0B3
:103BB000000E126EDCEF1DF012C00CF00D6AE1EF8A
:103BC0001DF012000CC010F00DC011F0ECEF1DF054
:103BD0000C4A0D2AECEF1DF00CC0D9FF0DC0DAFF26
:103BE000DF50D8A4F6EF1DF0F8EF1DF0E8EF1DF060
:103BF000FAEF1DF010C00EF011C00FF00E1E0F1ED8
:103C00000E4A0F2A0C500E240C6E0D500F200D6E14
:103C10000AEF1EF01200000E1B6E000E1A6E1EEF51
:103C20001EF019C00CF00D6A17C00EF018C00FF08E
:103C300010EC1AF01A4A1B2A1EEF1EF01A50152417
:103C4000D96E1B501620DA6EDF50196E1950D8A4A9
:103C50002CEF1EF02EEF1EF011EF1EF030EF1EF0D5
:103C60001200000E291A000E2A1A000E2B1A800EBE
:103C70002C1A25C00CF026C00DF027C00EF028C06D
:103C80000FF029C010F02AC011F02BC012F02CC088
:103C900013F0A5EC09F00CC025F00DC026F00EC005
:103CA00027F00FC028F055EF1EF01200500E7124BF
:103CB000D96E010E7220DA6EAECFDFFF500E712486
:103CC000D96E010E7220DA6EDF505BEC1FF0714A84
:103CD000722A71C001F072C002F0000E046E0A0E6A
:103CE000036EEBEC1AF001C071F002C072F079EFD4
:103CF0001EF01200C250C30B1C09C26EC282C280E9
:103D000082EF1EF0C2B287EF1EF089EF1EF082EF45
:103D10001EF08BEF1EF0C350C4CF0EF00F6A0EC022
:103D20000FF00E6A0E10106E0F50116E10C00CF0D6
:103D300011C00DF09CEF1EF012000C500D100E1073
:103D40000F10D8B4A6EF1EF0A8EF1EF0B2EF1EF0D1
:103D5000000E0C1A000E0D1A000E0E1A800E0F1A0D
:103D6000B2EF1EF00CC00CF00DC00DF00EC00EF046
:103D70000FC00FF0BCEF1EF01200BF0E0E6EFF0E54
:103D80000F6E0CC010F00DC011F00E5010260F5029
:103D9000112211500AE11A0E105CD8A0D2EF1EF0C9
:103DA000D5EF1EF0010ED6EF1EF0000E0C6E0D6A60
:103DB000DAEF1EF01200D00E0E6EFF0E0F6E0CC06A
:103DC00010F00DC011F00E5010260F50112211509E
:103DD0000AE10A0E105CD8A0F0EF1EF0F3EF1EF01F
:103DE000010EF4EF1EF0000E0C6E0D6AF8EF1EF0DF
:103DF000120001EE00F0640EEE6AE806FDE100EE4E
:103E0000DCF01E0EEE6AE806FDE100EE61F0120E37
:103E1000EE6AE806FDE173907392000EF86E000101
:103E200055EF15F00C500E02F3CF10F0F4CF11F057
:103E30000C500F02F35011260D500E02F3501126B4
:103E400010C00CF011C00DF026EF1FF0120006009C
:103E50009EA42DEF1FF02FEF1FF039EF1FF082749B
:103E60009E94000EB36E000EB26E39EF1FF039EF64
:103E70001FF073921100948C948EAC98B896AC8419
:103E80000C0EAF6EAB8E9E989E9AAC8AAB889D98B6
:103E90009F989D8A9F9A12000C6E4FEF1FF0ACA264
:103EA00054EF1FF056EF1FF04FEF1FF058EF1FF0C9
:103EB0000CC0ADFF1200016E5EEF1FF0ACA263EF0D
:103EC0001FF065EF1FF05EEF1FF067EF1FF001C0FE
:103ED000ADFF120096849AEC1FF09EEC1FF03BECB5
:103EE0001FF094EC1FF076EC1FF0120092680E0E9B
:103EF000C16EC08EC080C082C084000EC46E000E31
:103F0000C36E1200010E136E060E146E13C00DF078
:103F100014C00EF069EC1CF01200500E0C6E010E75
:103F20000D6E93EF1FF012009494090EBD6E9E94D7
:103F30009F841200D38CD39AD3881200D08EF28E35
:063F4000F28C12001200D9
:020000040020DA
:08000000FFFFFFFFFFFFFFFF00
:020000040030CA
:0E000000FF881F00FF8381FF0FC00FE00F403D
:00000001FF
