:020000040000FA
:04000000CBEF3FF013
:107F96000001CEEF3FF0000E026E0168000E046E87
:107FA600080E036EE3EC3FF001C003F002C004F0DC
:107FB6000450016E03C002F0DFEF3FF000EF00F067
:107FC600936A080E896E01C092FF03C0E8FF9236DD
:107FD6009336D86A935ED8B804D092369336928098
:107FE60004D09326923693369290892EF3D79342F5
:0A7FF60092CF02F093CF01F01200C9
:020000040020DA
:08000000FFFFFFFFFFFFFFFF00
:020000040030CA
:0E000000FF071F1FFF8385FF0FC00FE00F409B
:00000001FF
