:020000040000FA
:0400000007EF00F016
:10000800018209ED00F033EF01F006009EAC0FEF1E
:1000180000F011EF00F0E3EF00F09E9CC45007E100
:100028007F0EC35CD8B01BEF00F01DEF00F021EF8E
:1000380000F0000E8C6EF5EF00F0C45009E1800E60
:10004800C35CD8A02AEF00F02CEF00F03AEF00F0E4
:10005800C45006E1C328D8B034EF00F036EF00F002
:100068003AEF00F0010E8C6EF5EF00F0000EC35C65
:10007800010EC458D8A043EF00F045EF00F054EF4C
:1000880000F07F0EC35C010EC458D8B04EEF00F0EC
:1000980050EF00F054EF00F0020E8C6EF5EF00F018
:1000A800800EC35C010EC458D8A05DEF00F05FEF6E
:1000B80000F06DEF00F0C328010EC458D8B067EF08
:1000C80000F069EF00F06DEF00F0030E8C6EF5EFB5
:1000D80000F0000EC35C020EC458D8A076EF00F002
:1000E80078EF00F087EF00F07F0EC35C020EC45873
:1000F800D8B081EF00F083EF00F087EF00F0040E36
:100108008C6EF5EF00F0800EC35C020EC458D8A0C8
:1001180090EF00F092EF00F0A0EF00F0C328020E7D
:10012800C458D8B09AEF00F09CEF00F0A0EF00F0B0
:10013800050E8C6EF5EF00F0000EC35C030EC4587C
:10014800D8A0A9EF00F0ABEF00F0BAEF00F07F0EF7
:10015800C35C030EC458D8B0B4EF00F0B6EF00F09B
:10016800BAEF00F0060E8C6EF5EF00F0800EC35C5F
:10017800030EC458D8A0C3EF00F0C5EF00F0F5EFA8
:1001880000F0C328030EC458D8B0CDEF00F0CFEF6D
:1001980000F0F5EF00F0070E8C6EF5EF00F0F5EFCC
:1001A80000F0F5EF00F0F5EF00F0F5EF00F0F5EFF7
:1001B80000F0F5EF00F0F5EF00F0F5EF00F0A1A08A
:1001C800E8EF00F0EAEF00F0F5EF00F0A190000E84
:1001D800B36E000EB26EF5EF00F0F5EF00F0F5EF3C
:1001E80000F001921100C050F80B0109C06EC08EDA
:1001F800C050C70B1009C06E9386C250C30B2409A8
:10020800C26EC280CF0EC116C190C192C194C19670
:100218009D8CF28ED08E1200D388D38AD38C000E98
:10022800956EF7EC00F029EC01F01FEC01F01BEFE4
:1002380001F007EF00F0B18C300EB112B192B1802D
:10024800000EB36E000EB26E1200BA50F00B0B091E
:10025800BA6EA080000EBC6E010EBB6E120001903B
:080268000192000110EF01F00A
:020000040020DA
:08000000FFFFFFFFFFFFFFFF00
:020000040030CA
:0E000000FF081F1EFF8185FF0FC00FE00F409D
:00000001FF
