:020000040000FA
:0400000007EF00F016
:100008006D82E4ED0CF01FEF12F0000E0001966F08
:10001800000E956F000E876F020E886FD890953589
:10002800D96E9635DA6ED890D936DA368751D92610
:100038008851DA22D30E896F000E8A6FD8909535D1
:10004800E16E9635E26ED890E136E2368951E126C6
:100058008A51E222DECFE6FFDECFE6FFDECFE6FF03
:10006800DECFE6FF954B962B96BF44EF00F09651F6
:1000780009E1080E955DD8A044EF00F046EF00F0C6
:100088000EEF00F0020E0001886FE70E876F000E7A
:10009800E82EFED7872FFCD7882FFAD700F0000E5E
:1000A8000001986F000E976FD30E876F000E886F50
:1000B800D8909735D96E9835DA6ED890D936DA3621
:1000C8008751D9268851DA22DE6ADE6ADE6ADD6A5D
:1000D800C00E876F010E886FD8909735D96E983506
:1000E800DA6ED890D936DA368751D9268851DA228D
:1000F800DE6ADE6ADE6ADD6A974B982B98BF8EEF60
:1001080000F0985109E1080E975DD8A08EEF00F035
:1001180090EF00F058EF00F0020E0001886FE70E34
:10012800876F000EE82EFED7872FFCD7882FFAD7C7
:1001380000F0F7C080F0F8C081F0000E0001836F76
:10014800050E826F04EC15F080C0F7F081C0F8F05E
:10015800000E00019A6F000E996FF7C080F0F8C08A
:1001680081F0000E836F0A0E826F75EC15F080C067
:1001780093F081C094F0000199519A11D8A4C7EF67
:1001880000F0C9EF00F0CFEF00F0000EB06F020EE4
:10019800AF6FFCEF04F099059A11D8A4D6EF00F0E0
:1001A800D8EF00F0DEEF00F0000EB06F400EAF6F3A
:1001B800FCEF04F0020E99199A11D8A4E6EF00F0AA
:1001C800E8EF00F0EEEF00F0080EB06F000EAF6F32
:1001D800FCEF04F0FCEF04F0000E9C6F000E9B6F28
:1001E800D30E876F000E886FD8909B35D96E9C35DB
:1001F800DA6ED890D936DA368751D9268851DA227C
:10020800DECF89F0DECF8AF0DECF8BF0DECF8CF048
:10021800D8909B35D96E9C35DA6E400ED926010EE2
:10022800DA22DECF80F0DDCF81F0AFC082F0B0C03F
:1002380083F037EC16F00001805189118D6F8151E0
:100248008A118E6F000E8B118F6F000E8C11906FBC
:10025800D30E916F000E926FD8909B35D96E9C3556
:10026800DA6ED890D936DA369151D9269251DA22F7
:100278008DC0DEFF8EC0DEFF8FC0DEFF90C0DEFFC8
:100288009B4B9C2B9CBF52EF01F09C5109E1080E3F
:100298009B5DD8A052EF01F054EF01F0F4EF00F0AD
:1002A80032EF05F0000E9E6F000E9D6FD30E876F24
:1002B800000E886FD8909D35D96E9E35DA6ED8902D
:1002C800D936DA368751D9268851DA22DECF89F035
:1002D800DECF8AF0DECF8BF0DECF8CF0D8909D3564
:1002E800D96E9E35DA6E300ED926010EDA22DECFAF
:1002F80080F0DDCF81F0AFC082F0B0C083F037EC82
:1003080016F00001805189118D6F81518A118E6F0D
:10031800000E8B118F6F000E8C11906FD30E916FA2
:10032800000E926FD8909D35D96E9E35DA6ED890B2
:10033800D936DA369151D9269251DA228DC0DEFFAC
:100348008EC0DEFF8FC0DEFF90C0DEFF9D4B9E2B70
:100358009EBFB8EF01F09E5109E1080E9D5DD8A03F
:10036800B8EF01F0BAEF01F05AEF01F032EF05F003
:10037800000EA06F000E9F6FA0BFCCEF01F0A05140
:1003880009E1080E9F5DD8A0CCEF01F0CEEF01F097
:10039800D0EF01F032EF05F0D30E876F000E886FB3
:1003A800D8909F35D96EA035DA6ED890D936DA361E
:1003B8008751D9268851DA22DECF89F0DECF8AF03C
:1003C800DECF8BF0DECF8CF0D8909F35D96EA0357C
:1003D800DA6E200ED926010EDA22DECF80F0DDCFCC
:1003E80081F0AFC082F0B0C083F037EC16F00001A6
:1003F800805189118D6F81518A118E6F000E8B117A
:100408008F6F000E8C11906FD30E916F000E926F4C
:10041800D8909F35D96EA035DA6ED890D936DA36AD
:100428009151D9269251DA228DC0DEFF8EC0DEFFAF
:100438008FC0DEFF90C0DEFF9F4BA02BC0EF01F006
:10044800000EA26F000EA16FA2BF34EF02F0A251FE
:1004580009E1080EA15DD8A034EF02F036EF02F0F2
:1004680038EF02F032EF05F0D30E876F000E886F79
:10047800D890A135D96EA235DA6ED890D936DA3649
:100488008751D9268851DA22DECF89F0DECF8AF06B
:10049800DECF8BF0DECF8CF0D890A135D96EA235A7
:1004A800DA6E100ED926010EDA22DECF80F0DDCF0B
:1004B80081F0AFC082F0B0C083F037EC16F00001D5
:1004C800805189118D6F81518A118E6F000E8B11A9
:1004D8008F6F000E8C11906FD30E916F000E926F7C
:1004E800D890A135D96EA235DA6ED890D936DA36D9
:1004F8009151D9269251DA228DC0DEFF8EC0DEFFDF
:100508008FC0DEFF90C0DEFFA14BA22B28EF02F0C8
:10051800000EA46F000EA36FA4BF9CEF02F0A451BD
:1005280009E1080EA35DD8A09CEF02F09EEF02F04F
:10053800A0EF02F032EF05F0D30E876F000E886F40
:10054800D890A335D96EA435DA6ED890D936DA3674
:100558008751D9268851DA22DECF89F0DECF8AF09A
:10056800DECF8BF0DECF8CF0D890A335D96EA435D2
:10057800DA6E000ED926010EDA22DECF80F0DDCF4A
:1005880081F0AFC082F0B0C083F037EC16F0000104
:10059800805189118D6F81518A118E6F000E8B11D8
:1005A8008F6F000E8C11906FD30E916F000E926FAB
:1005B800D890A335D96EA435DA6ED890D936DA3604
:1005C8009151D9269251DA228DC0DEFF8EC0DEFF0E
:1005D8008FC0DEFF90C0DEFFA34BA42B90EF02F08C
:1005E800000EA66F000EA56FA6BF04EF03F0A6517C
:1005F80009E1080EA55DD8A004EF03F006EF03F0AB
:1006080008EF03F032EF05F0D30E876F000E886F06
:10061800D890A535D96EA635DA6ED890D936DA369F
:100628008751D9268851DA22DECF89F0DECF8AF0C9
:10063800DECF8BF0DECF8CF0D890A535D96EA635FD
:10064800DA6EA00ED926020EDA22DECF80F0DDCFD8
:1006580081F0AFC082F0B0C083F037EC16F0000133
:10066800805189118D6F81518A118E6F000E8B1107
:100678008F6F000E8C11906FD30E916F000E926FDA
:10068800D890A535D96EA635DA6ED890D936DA362F
:100698009151D9269251DA228DC0DEFF8EC0DEFF3D
:1006A8008FC0DEFF90C0DEFFA54BA62BF8EF02F04F
:1006B800000EA86F000EA76FA8BF6CEF03F0A8513B
:1006C80009E1080EA75DD8A06CEF03F06EEF03F008
:1006D80070EF03F032EF05F0D30E876F000E886FCE
:1006E800D890A735D96EA835DA6ED890D936DA36CB
:1006F8008751D9268851DA22DECF89F0DECF8AF0F9
:10070800DECF8BF0DECF8CF0D890A735D96EA83528
:10071800DA6E900ED926020EDA22DECF80F0DDCF17
:1007280081F0AFC082F0B0C083F037EC16F0000162
:10073800805189118D6F81518A118E6F000E8B1136
:100748008F6F000E8C11906FD30E916F000E926F09
:10075800D890A735D96EA835DA6ED890D936DA365A
:100768009151D9269251DA228DC0DEFF8EC0DEFF6C
:100778008FC0DEFF90C0DEFFA74BA82B60EF03F011
:10078800000EAA6F000EA96FAABFD4EF03F0AA51FA
:1007980009E1080EA95DD8A0D4EF03F0D6EF03F065
:1007A800D8EF03F032EF05F0D30E876F000E886F95
:1007B800D890A935D96EAA35DA6ED890D936DA36F6
:1007C8008751D9268851DA22DECF89F0DECF8AF028
:1007D800DECF8BF0DECF8CF0D890A935D96EAA3554
:1007E800DA6E800ED926020EDA22DECF80F0DDCF57
:1007F80081F0AFC082F0B0C083F037EC16F0000192
:10080800805189118D6F81518A118E6F000E8B1165
:100818008F6F000E8C11906FD30E916F000E926F38
:10082800D890A935D96EAA35DA6ED890D936DA3685
:100838009151D9269251DA228DC0DEFF8EC0DEFF9B
:100848008FC0DEFF90C0DEFFA94BAA2BC8EF03F0D4
:10085800000EAC6F000EAB6FACBF3CEF04F0AC51B8
:1008680009E1080EAB5DD8A03CEF04F03EEF04F0C0
:1008780040EF04F032EF05F0D30E876F000E886F5B
:10088800D890AB35D96EAC35DA6ED890D936DA3621
:100898008751D9268851DA22DECF89F0DECF8AF057
:1008A800DECF8BF0DECF8CF0D890AB35D96EAC357F
:1008B800DA6E700ED926020EDA22DECF80F0DDCF96
:1008C80081F0AFC082F0B0C083F037EC16F00001C1
:1008D800805189118D6F81518A118E6F000E8B1195
:1008E8008F6F000E8C11906FD30E916F000E926F68
:1008F800D890AB35D96EAC35DA6ED890D936DA36B1
:100908009151D9269251DA228DC0DEFF8EC0DEFFCA
:100918008FC0DEFF90C0DEFFAB4BAC2B30EF04F096
:10092800000EAE6F000EAD6FAEBFA4EF04F0AE5177
:1009380009E1080EAD5DD8A0A4EF04F0A6EF04F01D
:10094800A8EF04F032EF05F0D30E876F000E886F22
:10095800D890AD35D96EAE35DA6ED890D936DA364C
:100968008751D9268851DA22DECF89F0DECF8AF086
:10097800DECF8BF0DECF8CF0D890AD35D96EAE35AA
:10098800DA6E600ED926020EDA22DECF80F0DDCFD5
:1009980081F0AFC082F0B0C083F037EC16F00001F0
:1009A800805189118D6F81518A118E6F000E8B11C4
:1009B8008F6F000E8C11906FD30E916F000E926F97
:1009C800D890AD35D96EAE35DA6ED890D936DA36DC
:1009D8009151D9269251DA228DC0DEFF8EC0DEFFFA
:1009E8008FC0DEFF90C0DEFFAD4BAE2B98EF04F05A
:1009F80093C087F094C088F08851000AD8B407EFF4
:100A080005F032EF05F08751000AD8B494EF04F0EE
:100A1800010AD8B4F0EF00F0030AD8B456EF01F099
:100A2800010AD8B4BCEF01F0070AD8B424EF02F0E9
:100A3800010AD8B48CEF02F0030AD8B4F4EF02F03C
:100A4800010AD8B45CEF03F00F0AD8B4C4EF03F07E
:100A5800010AD8B42CEF04F032EF05F0F7C080F0AB
:100A6800F8C081F0000E836F0A0E826F04EC15F057
:100A780080C0F7F081C0F8F00001F751F811D8A450
:100A880048EF05F04AEF05F04CEF05F05CEF05F094
:100A9800994B9A2B9ABF5AEF05F09A5109E1030E28
:100AA800995DD8A05AEF05F05CEF05F0B1EF00F0C2
:100AB8001200000E5C6E010E5B6E000E0001C66F28
:100AC800000EC56F000E566E000E556EC00EB16F4B
:100AD800010EB26FD890C535D96EC635DA6ED8908A
:100AE800D936DA36B151D926B251DA22DE6ADE6A4F
:100AF800DE6ADD6AD30EB16F000EB26FD890C535CD
:100B0800D96EC635DA6ED890D936DA36B151D926CB
:100B1800B251DA22DE6ADE6ADE6ADD6A000E546EDF
:100B2800000E536EC54BC62BC6BFA4EF05F0C651C9
:100B380009E1080EC55DD8A0A4EF05F0A6EF05F001
:100B480066EF05F0000EC46F000EC36FD30EB16FD1
:100B5800000EB26FD890C335D96EC435DA6ED8900E
:100B6800D936DA36B151D926B251DA22DE6ADE6ACE
:100B7800DE6ADD6AC34BC42BC4BFCCEF05F0C45199
:100B880009E1080EC35DD8A0CCEF05F0CEEF05F063
:100B9800AAEF05F0020E0001B26FE70EB16F000E6A
:100BA800E82EFED7B12FFCD7B22FFAD700F0000EEF
:100BB8000001C86F000EC76F200EB16F020EB26F32
:100BC800D890C735D96EC835DA6ED890D936DA36A6
:100BD800B151D926B251DA22D30EB36F000EB46FD9
:100BE800D890C735E16EC835E26ED890E136E23666
:100BF800B351E126B451E222DECFE6FFDECFE6FFB5
:100C0800DECFE6FFDECFE6FFC74BC82BC8BF16EF27
:100C180006F0C85109E1080EC75DD8A016EF06F026
:100C280018EF06F0E0EF05F0A30E0001B16F550EC6
:100C3800E82EFED7B12FFCD7A082F28A9D82D58EEE
:100C4800CA84B18001EC16F0000180C0BFF081C0F9
:100C5800C0F0000EC0BFFF0EC16FC26FBFC080F0F2
:100C6800C0C081F0C1C082F0C2C083F00A0E846F98
:100C7800000E856F000E866F000E876F3FEC15F033
:100C880080C0BFF081C0C0F082C0C1F083C0C2F094
:100C9800980E0001BF25676EB70EC021686E000E62
:100CA800C121696E000EC2216A6E000EF46F000E3B
:100CB800F36F8B8862EF06F0F34BF42BF4BF6EEF03
:100CC80006F0F45109E1030EF35DD8A06EEF06F0CB
:100CD80070EF06F060EF06F0000EF46F000EF36F91
:100CE8008B9879EF06F0F34BF42BF4BF85EF06F001
:100CF800F45109E1030EF35DD8A085EF06F087EF04
:100D080006F077EF06F0000EF46F000EF36FD5EFE4
:100D180006F0F34BF42B82BA94EF06F096EF06F048
:100D2800B5EF06F0FE0EB16FFF0EB26F4BC0B3F019
:100D38004CC0B4F0B151B327B251B423F351B35DF1
:100D4800B451800AB56FF451800AB559D8A0AFEFF5
:100D580006F0B1EF06F0B5EF06F0514A522AEAEF75
:100D680006F082BABAEF06F0BCEF06F0D5EF06F04F
:100D7800020E4B24B16F000E4C20B26FB151F35DDF
:100D8800F451800AB36FB251800AB359D8A0CFEF9B
:100D980006F0D1EF06F0D5EF06F04F4A502AEAEFF9
:100DA80006F0F4BFE3EF06F0F45107E10F0EF35D30
:100DB800D8B0E1EF06F0E3EF06F0EAEF06F082BA0A
:100DC800E8EF06F0EAEF06F08DEF06F0000EF46F9C
:100DD800000EF36F52BEF9EF06F0525008E15104CD
:100DE800D8A0F9EF06F0FBEF06F010EF07F0F505D5
:100DF800F611D8B402EF07F004EF07F010EF07F090
:100E0800000E5A6E010E596E000E526E000E516E93
:100E1800000E506E000E4F6E50BE1BEF07F0505084
:100E280008E14F04D8A01BEF07F01DEF07F032EFE1
:100E380007F0F505F611D8B424EF07F026EF07F010
:100E480032EF07F0000E586E010E576E000E526E0C
:100E5800000E516E000E506E000E4F6E000ECA6FDF
:100E6800000EC96FFB51FC11D8A43DEF07F03FEF0E
:100E780007F06DEF07F0000ECA6F000EC96FCABF0A
:100E88004FEF07F0CA5109E1080EC95DD8A04FEF2E
:100E980007F051EF07F053EF07F06DEF07F0D89028
:100EA800C935D96ECA35DA6E800ED926010EDA2216
:100EB800D890C935E16ECA35E26E390EE126000ECA
:100EC800E222DECFE6FFDDCFE5FFC94BCA2B43EFB9
:100ED80007F0FB05FC11D8A474EF07F076EF07F0D4
:100EE800A4EF07F0000ECA6F000EC96FCABF86EFE5
:100EF80007F0CA5109E1080EC95DD8A086EF07F0CE
:100F080088EF07F08AEF07F0CAEF08F0D890C935E4
:100F1800D96ECA35DA6E900ED926010EDA22D8902B
:100F2800C935E16ECA35E26E390EE126000EE222BD
:100F3800DECFE6FFDDCFE5FFC94BCA2B7AEF07F01E
:100F4800020EFB19FC11D8A4ACEF07F0AEEF07F0C6
:100F5800E6EF07F0000ECA6F000EC96FCABFBEEFFA
:100F680007F0CA5109E1080EC95DD8A0BEEF07F025
:100F7800C0EF07F0C2EF07F0CAEF08F0010EC9256D
:100F8800B16F000ECA21B26F070EB117000EB2176B
:100F9800D890B137B237900EB125D96E010EB22173
:100FA800DA6ED890C935E16ECA35E26E390EE1269F
:100FB800000EE222DECFE6FFDDCFE5FFC94BCA2BEC
:100FC800B2EF07F0030EFB19FC11D8A4EEEF07F0FF
:100FD800F0EF07F028EF08F0000ECA6F000EC96F97
:100FE800CABF00EF08F0CA5109E1080EC95DD8A0D0
:100FF80000EF08F002EF08F004EF08F0CAEF08F07D
:10100800020EC925B16F000ECA21B26F070EB117C3
:10101800000EB217D890B137B237900EB125D96EFD
:10102800010EB221DA6ED890C935E16ECA35E26E8A
:10103800390EE126000EE222DECFE6FFDDCFE5FF26
:10104800C94BCA2BF4EF07F0040EFB19FC11D8B4F6
:1010580030EF08F032EF08F03CEF08F0050EFB190E
:10106800FC11D8A43AEF08F03CEF08F074EF08F050
:10107800000ECA6F000EC96FCABF4CEF08F0CA5104
:1010880009E1080EC95DD8A04CEF08F04EEF08F052
:1010980050EF08F0CAEF08F0030EC925B16F000E33
:1010A800CA21B26F070EB117000EB217D890B13728
:1010B800B237900EB125D96E010EB221DA6ED890F2
:1010C800C935E16ECA35E26E390EE126000EE2221C
:1010D800DECFE6FFDDCFE5FFC94BCA2B40EF08F0B6
:1010E800080EFB19FC11D8B47CEF08F07EEF08F06D
:1010F80092EF08F0070EFB19FC11D8B486EF08F040
:1011080088EF08F092EF08F0060EFB19FC11D8A43E
:1011180090EF08F092EF08F0CAEF08F0000ECA6FDF
:10112800000EC96FCABFA2EF08F0CA5109E1080E44
:10113800C95DD8A0A2EF08F0A4EF08F0A6EF08F068
:10114800CAEF08F0040EC925B16F000ECA21B26FAC
:10115800070EB117000EB217D890B137B237900EFC
:10116800B125D96E010EB221DA6ED890C935E16E7B
:10117800CA35E26E390EE126000EE222DECFE6FF26
:10118800DDCFE5FFC94BCA2B96EF08F05304541086
:10119800D8A4D1EF08F0D3EF08F01CEF09F0000E47
:1011A800CA6F000EC96FCABFE3EF08F0CA5109E160
:1011B800080EC95DD8A0E3EF08F0E5EF08F0E7EF07
:1011C80008F016EF09F0D890C935D96ECA35DA6E2D
:1011D800700ED926010EDA22DECFB1F0DDCFB2F0E3
:1011E800B151B36FB251B46FB56BB66BC00EB76F78
:1011F800010EB86FD890C935D96ECA35DA6ED89055
:10120800D936DA36B751D926B851DA22B351DE12B7
:10121800B451DE12B551DE12B651DE12C94BCA2BDB
:10122800D7EF08F0000E546E000E536EB6EF09F0BB
:10123800020E53185410D8A424EF09F026EF09F031
:1012480069EF09F0000ECA6F000EC96FCABF36EF0A
:1012580009F0CA5109E1080EC95DD8A036EF09F0B6
:1012680038EF09F03AEF09F016EF09F0D890C935D0
:10127800D96ECA35DA6E600ED926010EDA22DECFB3
:10128800B1F0DDCFB2F0B151B36FB251B46FB56BFD
:10129800B66BC00EB76F010EB86FD890C935D96E4E
:1012A800CA35DA6ED890D936DA36B751D926B85158
:1012B800DA22B351DE12B451DE12B551DE12B65144
:1012C800DE12C94BCA2B2AEF09F0030E531854102B
:1012D800D8A471EF09F073EF09F0B6EF09F0000E2A
:1012E800CA6F000EC96FCABF83EF09F0CA5109E17E
:1012F800080EC95DD8A083EF09F085EF09F087EFE4
:1013080009F016EF09F0D890C935D96ECA35DA6EEA
:10131800500ED926010EDA22DECFB1F0DDCFB2F0C1
:10132800B151B36FB251B46FB56BB66BC00EB76F36
:10133800010EB86FD890C935D96ECA35DA6ED89013
:10134800D936DA36B751D926B851DA22B351DE1276
:10135800B451DE12B551DE12B651DE12C94BCA2B9A
:1013680077EF09F0000ECA6F000EC96FCABFC6EF4B
:1013780009F0CA5109E1080EC95DD8A0C6EF09F005
:10138800C8EF09F0CAEF09F026EF06F0D890C93582
:10139800D96ECA35DA6E390ED926000EDA22DECFBA
:1013A800B1F0DDCFB2F0B1C0B2F0B16BC00EB36F27
:1013B800010EB46FD890C935D96ECA35DA6ED89097
:1013C800D936DA36B351D926B451DA22DECFB5F0A0
:1013D800DECFB6F0DECFB7F0DECFB8F0B6C0B5F0EE
:1013E800B7C0B6F0B8C0B7F0B86BB151B519B96F9E
:1013F800B251B619BA6F000EB719BB6F000EB81903
:10140800BC6FD30EBD6F000EBE6FD890C935D96EB4
:10141800CA35DA6ED890D936DA36BD51D926BE51DA
:10142800DA22B9C0DEFFBAC0DEFFBBC0DEFFBCC037
:10143800DEFFD890C935D96ECA35DA6E390ED9268D
:10144800000EDA22DECFB1F0DDCFB2F0B1C0B2F0DB
:10145800B16BC00EB36F010EB46FD890C935D96E99
:10146800CA35DA6ED890D936DA36B351D926B4519E
:10147800DA22DECFB5F0DECFB6F0DECFB7F0DECFC2
:10148800B8F0B6C0B5F0B7C0B6F0B8C0B7F0B86B32
:10149800B151B515B96FB251B615BA6F000EB7157F
:1014A800BB6F000EB815BC6FA00EBD6F010EBE6FEE
:1014B800D890C935D96ECA35DA6ED890D936DA36A9
:1014C800BD51D926BE51DA22B9C0DEFFBAC0DEFF4F
:1014D800BBC0DEFFBCC0DEFFA00EB16F010EB26F55
:1014E800D890C935D96ECA35DA6ED890D936DA3679
:1014F800B151D926B251DA22DE50DE10DE10DE10EC
:10150800D8B489EF0AF08BEF0AF09DEF0AF0000ECD
:101518005C6E000E5B6E000E566E000E556EA0924D
:10152800F29A9D92D59ECA94B19009EC00F0A1EF71
:101538000AF0C94BCA2BBAEF09F012008CEC12F072
:10154800D08EF28EF28C9E909D809F80D90ECD6EAB
:101558004C0ECE6EFE0ECF6EA192A092A282D80E35
:10156800B16E700EB26ED40EB36E010ECA6E9E923C
:101578009D929F829494000E0001FA6F000EF96FFD
:10158800D890F935D96EFA35DA6E2C0ED926040EB4
:10159800DA22DF50CB6FD890CB35CB6E0F0EBD6EF5
:1015A800D890F935D96EFA35DA6E2C0ED926040E94
:1015B800DA22DF50BE6EF29AF294F184080ED56EEC
:1015C800BF0ED76E8C0ED66E000E806F000E816F28
:1015D800DAEC15F080C0CBF081C0CCF082C0CDF041
:1015E80083C0CEF084C0CFF085C0D0F086C0D1F0E3
:1015F80087C0D2F0CBC088F0CDC089F01FEC16F0C0
:1016080067EC10F05DEC05F0000E0101F76F000EBD
:10161800F66F000EF96F000EF86F8CEF0BF0000EEE
:101628000001F46F000EF36F8B881DEF0BF0F34B86
:10163800F42BF4BF29EF0BF0F45109E1030EF35D2D
:10164800D8A029EF0BF02BEF0BF01BEF0BF0000EDF
:10165800F46F000EF36F8B9834EF0BF0F34BF42B11
:10166800F4BF40EF0BF0F45109E1030EF35DD8A08D
:1016780040EF0BF042EF0BF032EF0BF0000EF46F7F
:10168800000EF36F66EF0BF0F34BF42B82BA4FEFBB
:101698000BF051EF0BF053EF0BF07BEF0BF0F4BFB7
:1016A8005FEF0BF0F45109E10A0EF35DD8A05FEF8C
:1016B8000BF061EF0BF066EF0BF00101F84BF92B23
:1016C8007BEF0BF0F4BF74EF0BF0F45107E10F0E52
:1016D800F35DD8B072EF0BF074EF0BF07BEF0BF00B
:1016E80082BA79EF0BF07BEF0BF048EF0BF0210E8D
:1016F8000001CB6F760EE82EFED7CB2FFCD700F07B
:10170800000E0001F46F000EF36F0101F64BF72B8A
:10171800F7BF98EF0BF0F75109E1140EF65DD8A06A
:1017280098EF0BF09AEF0BF013EF0BF0000EF56F3C
:10173800000EF46FF9BFA9EF0BF0F95108E1F805B5
:10174800D8A0A9EF0BF0ABEF0BF0DBEF0BF0000E1E
:10175800FB6F000EFA6FD30E0001CB6F000ECC6F3B
:10176800D8900101FA35D96EFB35DA6ED890D936A2
:10177800DA360001CB51D926CC51DA22DE6ADE6A8C
:10178800DE6ADD6A000E0101F56F010EF46FFA4B97
:10179800FB2BFBBFD9EF0BF0FB5109E1080EFA5DFB
:1017A800D8A0D9EF0BF0DBEF0BF0AFEF0BF0F4059F
:1017B800F511D8A4E2EF0BF0E4EF0BF008EF0BF013
:1017C800020E0001CC6F450ECB6FA90EE82EFED796
:1017D800CB2FFCD7CC2FFAD700D0000E0101F76F22
:1017E800000EF66F000EF96F000EF86F75EF0CF033
:1017F800000E0001F46F000EF36F8B8806EF0CF0FB
:10180800F34BF42BF4BF12EF0CF0F45109E1030E83
:10181800F35DD8A012EF0CF014EF0CF004EF0CF00D
:10182800000EF46F000EF36F8B981DEF0CF0F34B66
:10183800F42BF4BF29EF0CF0F45109E1030EF35D2A
:10184800D8A029EF0CF02BEF0CF01BEF0CF0000EDA
:10185800F46F000EF36F4FEF0CF0F34BF42B82BADA
:1018680038EF0CF03AEF0CF03CEF0CF064EF0CF0B2
:10187800F4BF48EF0CF0F45109E10A0EF35DD8A06B
:1018880048EF0CF04AEF0CF04FEF0CF00101F84B69
:10189800F92B64EF0CF0F4BF5DEF0CF0F45107E1A5
:1018A8000F0EF35DD8B05BEF0CF05DEF0CF064EF5A
:1018B8000CF082BA62EF0CF064EF0CF031EF0CF030
:1018C800210E0001CB6F760EE82EFED7CB2FFCD76A
:1018D80000F0000E0001F46F000EF36F0101F64BEB
:1018E800F72BF7BF81EF0CF0F75109E1140EF65D05
:1018F800D8A081EF0CF083EF0CF0FCEF0BF0F8515F
:10190800F911D8A48AEF0CF08CEF0CF0F1EF0BF082
:10191800000E0001F86F000EF76F000E566E000EF5
:10192800556E000E0101FD6F000EFC6FC00E000128
:10193800CB6F010ECC6FD8900101FC35D96EFD3507
:10194800DA6ED890D936DA360001CB51D926CC5187
:10195800DA22DE6ADE6ADE6ADD6AD30ECB6F000E3B
:10196800CC6FD8900101FC35D96EFD35DA6ED89070
:10197800D936DA360001CB51D926CC51DA22DE6AC3
:10198800DE6ADE6ADD6A0101FC4BFD2BFDBFD6EF86
:101998000CF0FD5109E1080EFC5DD8A0D6EF0CF063
:1019A800D8EF0CF09AEF0CF0000E546E000E536E48
:1019B800000E5C6E000E5B6E04EF0BF007EF00F09C
:1019C8000600D9CF35F0DACF36F0F2A4EEEF0CF0FE
:1019D800F0EF0CF06BEF0DF0F2945D4A5E2AF9C05F
:1019E80001F0FAC002F0000E046EB40E036EA8EC0B
:1019F80015F0D89001360236C40E0124D96E020EB5
:101A08000220DA6E5D50DE1807E15E50DE18D8A4B9
:101A180010EF0DF012EF0DF065EF0DF0000E5E6E99
:101A2800000E5D6E0001F94BFA2BF9C001F0FAC007
:101A380002F0000E046EB40E036EA8EC15F0D890F8
:101A4800013602362C0E0124D96E040E0220DA6EFD
:101A5800DE50DE10D8B433EF0DF035EF0DF04FEF58
:101A68000DF0F9C001F0FAC002F0000E046EB40ED9
:101A7800036EA8EC15F0D890013602362C0E01241E
:101A8800D96E040E0220DA6EDF50296ED890293400
:101A9800CB6E50EF0DF0CB68F9C001F0FAC002F040
:101AA800000E046EB40E036EA8EC15F0D890013643
:101AB80002362C0E0124D96E040E0220DA6EDF5095
:101AC800BE6EBF0ED76E8C0ED66EF9EF0EF09EA2CC
:101AD80070EF0DF072EF0DF075EF0DF09E92F9EFCB
:101AE8000EF09EA07AEF0DF07CEF0DF007EF0EF0F0
:101AF800B00ECE6EFE0ECF6EC2EF0DF0D4C08AFFD0
:101B0800D3C08CFFFE0E926EF0EF0DF0D8C08AFFA6
:101B1800D7C08CFFFD0E926EF0EF0DF0FB0E926EAB
:101B2800DCC08AFFDBC08CFFF0EF0DF0F70E926E81
:101B3800E0C08AFFDFC08CFFF0EF0DF0EF0E926E71
:101B4800E4C08AFFE3C08CFFF0EF0DF0DF0E926E69
:101B5800E8C08AFFE7C08CFFF0EF0DF0BF0E926E71
:101B6800ECC08AFFEBC08CFFF0EF0DF0F0C08AFFED
:101B7800EFC08CFF7F0E926EF0EF0DF06BC029F076
:101B88006CC02AF02A50000AD8B4CDEF0DF0F0EF5F
:101B98000DF02950000AD8B482EF0DF0010AD8B42C
:101BA8008AEF0DF0030AD8B492EF0DF0010AD8B409
:101BB8009AEF0DF0070AD8B4A2EF0DF0010AD8B4D5
:101BC800AAEF0DF0030AD8B4B2EF0DF0010AD8B4A9
:101BD800BAEF0DF0F0EF0DF06B4A6C2A6CBEFEEF19
:101BE8000DF06C5009E1080E6B5CD8A0FEEF0DF00B
:101BF80000EF0EF004EF0EF0000E6C6E000E6B6E30
:101C08009E90F9EF0EF0A1A20CEF0EF00EEF0EF081
:101C1800F9EF0EF05B045C10D8A415EF0EF017EF87
:101C28000EF01CEF0EF0554A562A0001F74BF82B20
:101C380067C0B2FF68C0B3FF000E386E000E376E83
:101C4800C00E296E010E2A6ED8903734D96E3834FA
:101C5800DA6ED890D936DA362950D9262A50DA22BF
:101C6800DECF2BF0DECF2CF0DECF2DF0DECF2EF046
:101C7800D8902B342F6E2C34306E2D34316E2E3498
:101C8800326EC00E336E010E346ED8903734D96E72
:101C98003834DA6ED890D936DA363350D9263450FB
:101CA800DA222FC0DEFF30C0DEFF31C0DEFF32C0D7
:101CB800DEFF374A382A38BE6BEF0EF0385009E19C
:101CC800080E375CD8A06BEF0EF06DEF0EF024EF26
:101CD8000EF059045A10D8A474EF0EF076EF0EF0F7
:101CE8008BEF0EF00001FB4BFC2B080EFB19FC11CF
:101CF800D8A481EF0EF083EF0EF08BEF0EF0000EFC
:101D08005A6E000E596E000EF66F010EF56F000147
:101D1800F505F611D8A493EF0EF095EF0EF0A5EFA8
:101D28000EF0FB07D8A0FC07FB05FC11D8A49FEF19
:101D38000EF0A1EF0EF0A5EF0EF0000EF66F000EFC
:101D4800F56F57045810D8A4ACEF0EF0AEEF0EF0B4
:101D5800C3EF0EF059045A10D8B4B5EF0EF0B7EF30
:101D68000EF0C3EF0EF0F505F611D8B4BEEF0EF085
:101D7800C0EF0EF0C3EF0EF0FB07D8A0FC07F60E7D
:101D8800FB1906E1FC29D8A4CCEF0EF0CEEF0EF03B
:101D9800D6EF0EF0000EFC6F010EFB6F000E586EB2
:101DA800000E576E0F0E55185610D8A4DEEF0EF021
:101DB800E0EF0EF0F6EF0EF0B1EC11F019C023F0E1
:101DC8001AC024F0000E266E030E256E0DEC14F0DA
:101DD800010E2324536E000E2420546E000E566EFE
:101DE800000E556EA192F9EF0EF036C0DAFF35C03D
:101DF800D9FF6D92110001000100010002000100ED
:101E080002000100010001000200010004000100BD
:101E180004000100030001000300010003000100A9
:101E2800030001000200010001000100020001009E
:101E3800010001000100010002000100030001008F
:101E48000100010002000100020001000100010080
:101E5800010001000700010001000100010001006C
:101E6800010001000300010002000100010001005F
:101E78000100010002000100010001000100010051
:101E8800040001000100010001000100010001003F
:101E9800030001000200010002000100010001002E
:101EA800060001000100010001000100010001001D
:101EB800030001000200010001000100010001000F
:101EC80002000100010001000100010004000100FE
:101ED80003000100030001000900010001000100E6
:101EE80001000100010001000300010002000100DF
:101EF80001000100010001000200010001000100D1
:101F080001000100040001000100010001000100BE
:101F180001000100030001000200010002000100AD
:101F2800010001000600010001000100010001009C
:101F3800010001000300010002000100010001008E
:101F48000100010002000100010001000100010080
:101F580004000100030001000300010009002F0034
:101F680000002F0000002F0000003B0000002F00A1
:101F780000001F0000004E0000003B0000004E0063
:101F880000005E000000460000001F000000420044
:101F98000000460000004E0000002F00000027004F
:101FA8000000230000002D000000270000002F0083
:101FB80000003B000000340000003E000000270045
:101FC8000000290000002D000000310000002F0053
:101FD80000004A000000460000003B0000004600E8
:101FE80000003B000000340000002700000029002A
:101FF80000002D000000310000002F0000001D002F
:1020080000001D0000001D0000002700000029003E
:1020180000002D000000310000002F0000004A00E1
:102028000000460000003B000000460000003B00A6
:1020380000003400000031000000340000003B00C4
:10204800000027000000290000002D0000003100DA
:1020580000002F0000004A000000460000003B007E
:102068000000460000003B0000003400000027008C
:102078000000290000002D000000310000002F00A2
:1020880000001D0000001D0000001D0000002700CA
:102098000000290000002D000000310000002F0082
:1020A80000004A000000460000003B000000460017
:1020B80000003B0000003400000031000000340044
:1020C80000003B000000030E0001896F8A0E886F34
:1020D800550EE82EFED7882FFCD7892FFAD700D0C7
:1020E800000E0001936F000E926F400E886F020E73
:1020F800896FD8909235D96E9335DA6ED890D936E3
:10210800DA368851D9268951DA22D30E8A6F000E21
:102118008B6FD8909235E16E9335E26ED890E136A8
:10212800E2368A51E1268B51E222DECFE6FFDECF8E
:10213800E6FFDECFE6FFDECFE6FF924B932B93BFA1
:10214800AFEF10F0935109E1080E925DD8A0AFEF00
:1021580010F0B1EF10F079EF10F0000E8D6F000E57
:102168008C6F2BEF11F0000EF46F000EF36F8B885D
:10217800C0EF10F0F34BF42BF4BFCCEF10F0F45198
:1021880009E1030EF35DD8A0CCEF10F0CEEF10F00C
:10219800BEEF10F0000EF46F000EF36F8B98D7EFC0
:1021A80010F0F34BF42BF4BFE3EF10F0F45109E116
:1021B800030EF35DD8A0E3EF10F0E5EF10F0D5EFD4
:1021C80010F0000EF46F000EF36F10EF11F0F34BE8
:1021D800F42B82BAF2EF10F0F4EF10F010EF11F0D8
:1021E80049C080F04AC081F0000E836F0A0E826FEA
:1021F8005CEC13F0D890000180378137E00E802521
:10220800D96E010E8121DA6EF3C0DEFFF4C0DDFF66
:10221800494A4A2A25EF11F0F4BF1EEF11F0F45194
:1022280007E10F0EF35DD8B01CEF11F01EEF11F0AF
:1022380025EF11F082BA23EF11F025EF11F0EBEF43
:1022480010F0000EF46F000EF36F8C4B8D2B8DBFCA
:1022580037EF11F0E80E8C5D030E8D59D8A037EFDB
:1022680011F039EF11F0B7EF10F0000E916F000E7A
:10227800906F000E8F6F000E8E6F000E956F000E20
:10228800946FD8909435D96E9535DA6EE00ED926CC
:10229800010EDA22DE50DE10D8B455EF11F057EFF8
:1022A80011F085EF11F0D8909435D96E9535DA6E26
:1022B800E00ED926010EDA22010EDBBE6EEF11F018
:1022C800010EDB5009E1030EDE5CD8A06EEF11F0C1
:1022D80070EF11F085EF11F08E4B8F2BD89094355D
:1022E800D96E9535DA6EE00ED926010EDA22DECFE8
:1022F80088F0DDCF89F090518825906F9151892120
:10230800916F944B952B95BF93EF11F0955109E17F
:102318000A0E945DD8A093EF11F095EF11F045EFF8
:1023280011F090C080F091C081F08EC082F08FC013
:1023380083F0F9EC12F080C04BF081C04CF0020E33
:102348000001896F450E886FA90EE82EFED7882FE9
:10235800FCD7892FFAD700D012005FC001F060C007
:1023680002F061C003F062C004F063C005F064C00D
:1023780006F065C007F066C008F02D0E096E7F0EE6
:102388000A6E950E0B6E4C0E0C6E2D0E0D6EF40E25
:102398000E6E510E0F6E580E106EB5EC14F001C093
:1023A8001BF002C01CF003C01DF004C01EF005C0E5
:1023B8001FF006C020F007C021F008C022F0010E6F
:1023C8001B245F6E000E1C20606E000E1D20616EC7
:1023D800000E1E20626E000E1F20636E000E20206D
:1023E800646E000E2120656E000E2220666E5FC0AE
:1023F8001BF060C01CF061C01DF062C01EF063C01D
:102408001FF064C020F065C021F066C022F0320ED3
:1024180017EF12F0D8902232213220321F321E32AA
:102428001D321C321B32E82E0EEF12F01BC019F0C1
:102438001DC01AF01200FE0EF66E1D0EF76E000E8D
:10244800F86E02EEC4F012EED0F00900F5CFEEFF00
:10245800E550E150FAE1E250F8E16A0EF66E270E17
:10246800F76E000EF86E02EE00F010EEB0F0090004
:10247800F5CFEEFFE550E150FAE1CA0EF66E280EF0
:10248800F76E000EF86E01EE00F010EEA0F00900F5
:10249800F5CFEEFFE550E150FAE19C0EF66E2C0EFA
:1024A800F76E000EF86E0900F5CFFBF00900F5CFC6
:1024B800FCF0960EF66E2C0EF76E000EF86E00EE1F
:1024C80067F010EE06F00900F5CFEEFFE550E15099
:1024D800FAE102EEB0F0140EEE6AE806FDE101EE54
:1024E800A0F0540EEE6AE806FDE100EED3F0280EE7
:1024F800EE6AE806FDE100EE39F02E0EEE6AE80617
:10250800FDE16D906D92000EF86E0001A2EF0AF0E9
:10251800000E0001FC6F010EFB6F000EF66F000E3F
:10252800F56F000E566E000E556E0F0EC16E000E42
:10253800896E000E806E000E926E000E8A6E000E7E
:10254800816E000E936E000E8B6E000E826E000E72
:10255800946E000E8C6E000E836E000E956E94982D
:10256800948AC08E070EC012000EC46E000EC36E91
:10257800000E836F000E826FA00E806F010E816FB8
:10258800D8908235D96E8335DA6ED890D936DA3656
:102598008051D9268151DA22DE6ADE6ADE6ADD6A76
:1025A800C00E806F010E816FD8908235D96E833549
:1025B800DA6ED890D936DA368051D9268151DA22A6
:1025C800DE6ADE6ADE6ADD6A824B832B83BFF6EF42
:1025D80012F0835109E1080E825DD8A0F6EF12F0DF
:1025E800F8EF12F0C0EF12F01200000E0001856F34
:1025F80083BF03EF13F001EF13F009EF13F0826DBF
:10260800831FD8B0832B010E856F81BF10EF13F0A5
:102618000EEF13F016EF13F0806D811FD8B0812BE9
:10262800010E851B000E876F000E866F8251831185
:10263800D8B421EF13F023EF13F04BEF13F0010E92
:10264800846F2BEF13F0D89082378337842B83AFB6
:1026580030EF13F032EF13F027EF13F0D8908637EE
:1026680087378251805D83518159D8A03EEF13F09E
:1026780040EF13F045EF13F08251805F8351815B87
:102688008681D89083338233842F32EF13F08551BB
:10269800D8B451EF13F053EF13F057EF13F0866DE2
:1026A800871FD8B0872B86C080F087C081F01200C2
:1026B800000E0001856F81BF66EF13F064EF13F021
:1026C8006CEF13F0806D811FD8B0812B010E856FE0
:1026D80083BF73EF13F071EF13F077EF13F0826D90
:1026E800831FD8B0832B82518311D8B47EEF13F0A7
:1026F80080EF13F0A4EF13F0010E846F88EF13F04E
:10270800D89082378337842B83AF8DEF13F08FEF08
:1027180013F084EF13F08251805D83518159D8A062
:1027280098EF13F09AEF13F09EEF13F08251805F49
:102738008351815BD89083338233842F8FEF13F0DA
:102748008551D8B4AAEF13F0ACEF13F0B0EF13F043
:10275800806D811FD8B0812B80C080F081C081F04E
:10276800120000000000000000005C7A00005243E4
:102778000000D27A0000524200005C7A000000009B
:10278800000000000000E638000016450000164171
:102798000000164D000010450000E638000000005B
:1027A800000000000000000000008CA400008AAABD
:1027B80000008AEA00008AAA0000ECA400000000D9
:1027C80000000000060009000900090009000600D1
:1027D80000000000060009000900070001000100D0
:1027E80000000000060009000600090009000600B4
:1027F800000000000F0001000100020004000400B6
:1028080000000000060008000E000900090006008C
:102818000000000E286E24BE16EF14F014EF14F01A
:102828001CEF14F0236C241ED8B0242A010E286E45
:1028380026BE23EF14F021EF14F027EF14F0256CD7
:10284800261ED8B0262A25502610D8B42EEF14F00C
:1028580030EF14F054EF14F0010E276E38EF14F037
:10286800D89025362636272A26AE3DEF14F03FEFBE
:1028780014F034EF14F02550235C26502458D8A0C7
:1028880048EF14F04AEF14F04EEF14F02550235E91
:102898002650245AD89026322532272E3FEF14F09E
:1028A8002850D8B45AEF14F05CEF14F060EF14F02D
:1028B800236C241ED8B0242A23C023F024C024F07B
:1028C800120000000F0008000E00010009000600B9
:1028D80000000000020006000A000A000F000200C3
:1028E80000000000060009000200010009000600BF
:1028F80000000000060009000100020004000F00AB
:1029080000000000020006000200020002000700AA
:1029180000000000000002000F000200000000009C
:1029280000000000000000000000000006000F008A
:102938000F00000000000000000000000200070077
:102948000700000000000000000000003800300010
:10295800600000000000000000003000200030008F
:10296800600020EE11F0070EDE6AE806FDE201A025
:10297800C0EF14F0C2EF14F0D2EF14F00950112692
:102988000A5012220B5013220C5014220D501522FB
:102998000E5016220F50172210501822D8900936C0
:1029A8000A360B360C360D360E360F361036D890E2
:1029B800083207320632053204320332023201325B
:1029C800015002100310041005100610071008101B
:1029D800D8A4F1EF14F0F3EF14F0BBEF14F011C02A
:1029E80001F012C002F013C003F014C004F015C0C7
:1029F80005F016C006F017C007F018C008F012005E
:102A0800000E0001866F000E856F82518311D8B4C5
:102A180010EF15F012EF15F03AEF15F0010E846F74
:102A28001AEF15F0D89082378337842B83AF1FEFC6
:102A380015F021EF15F016EF15F0D8908537863789
:102A48008251805D83518159D8A02DEF15F02FEF69
:102A580015F034EF15F08251805F8351815B8581D9
:102A6800D89083338233842F21EF15F085C080F00E
:102A780086C081F01200000E0001886F000E896F79
:102A8800000E8A6F000E8B6F80A14DEF15F04FEF8F
:102A980015F057EF15F08451882785518923865101
:102AA8008A2387518B23D890843785378637873791
:102AB800D8908333823381338033805181118211DE
:102AC8008311D8A46AEF15F06CEF15F048EF15F0F4
:102AD80088C080F089C081F08AC082F08BC083F002
:102AE8001200000182518311D8B47DEF15F07FEFF9
:102AF80015F0A3EF15F0010E846F87EF15F0D8904D
:102B080082378337842B83AF8CEF15F08EEF15F067
:102B180083EF15F08251805D83518159D8A097EFDA
:102B280015F099EF15F09DEF15F08251805F8351F4
:102B3800815BD89083338233842F8EEF15F080C069
:102B480080F081C081F0120003500410D8B4AFEFB8
:102B580015F0B1EF15F0D5EF15F0010E056EB9EFD0
:102B680015F0D89003360436052A04AEBEEF15F0EA
:102B7800C0EF15F0B5EF15F00350015C0450025892
:102B8800D8A0C9EF15F0CBEF15F0CFEF15F0035033
:102B9800015E0450025AD89004320332052EC0EF69
:102BA80015F001C001F002C002F0120000018051CE
:102BB8008111D8B4E2EF15F0E4EF15F0F8EF15F055
:102BC80080C0D9FF81C0DAFFFF0EDE6EFF0EDE6E19
:102BD800FF0EDE6EFF0EDE6EFF0EDE6EFF0EDE6E89
:102BE800FF0EDE6EFF0EDD6E806981698269836982
:102BF80084698569866987691200C250C30B1C09FC
:102C0800C26EC282C280C2B20CEF16F00EEF16F08E
:102C180007EF16F0C350C4CF82F00001836B82C067
:102C280083F0826B8211846F8351856F84C080F03A
:102C380085C081F01200FF0E00018A6FFF0E8B6FB6
:102C480088C08CF089C08DF08A518C278B518D23D8
:102C58008CC05FF08DC060F0616A626A636A646A02
:102C6800656A666A1200000180518203F3CF84F01E
:102C7800F4CF85F080518303F35085278151820377
:102C8800F350852784C080F085C081F0120098B782
:062C98000000FFFF010037
:020000040020DA
:08000000FFFFFFFFFFFFFFFF00
:020000040030CA
:0E000000FF881F00FF8381FF0FC00FE00F403D
:00000001FF
